:020000040800F2
:1000000060D5012045910008F1020008F3020008C4
:10001000F7020008FB020008FF02000800000000D1
:1000200000000000000000000000000003030008C2
:10003000050300080000000007030008090300088A
:100040005F9100085F9100085F9100085F910008D0
:100050005F9100085F9100085F9100085F910008C0
:100060005F9100085F9100085F9100085F910008B0
:100070005F9100085F9100085F9100085F910008A0
:100080005F9100085F9100085F9100085F91000890
:100090005F9100085F9100085F9100085F91000880
:1000A0005F9100085F9100085F9100085F91000870
:1000B0005F910008615500085F9100085F9100089A
:1000C0005F9100085F9100085F9100085F91000850
:1000D0005F910008BB9000085F9100085F910008E5
:1000E0005F9100085F9100085F9100085F91000830
:1000F0005F9100085F9100085F9100085F91000820
:100100005F9100084D4B00085F9100085F91000867
:100110005F9100085F9100085F9100085F910008FF
:100120005F9100085F9100085F9100085F910008EF
:100130005F910008315300085F9100085F9100084B
:100140005F9100085F9100085F9100085F910008CF
:100150005F9100085F9100085F9100085F910008BF
:100160005F9100085F9100085F9100085F910008AF
:100170005F9100085F9100085F9100085F9100089F
:100180005F9100085F91000800F002F800F067F846
:100190000AA090E8000C82448344AAF10107DA45E2
:1001A00001D100F05CF8AFF2090EBAE80F0013F0CD
:1001B000010F18BFFB1A43F001031847D8AC010028
:1001C000F8AC01000A444FF0000C10F8013B13F0AA
:1001D000070408BF10F8014B1D1108BF10F8015BA0
:1001E000641E05D010F8016B641E01F8016BF9D193
:1001F00013F0080F1EBF10F8014BAD1C0C1B09D1EA
:100200006D1E58BF01F801CBFAD505E014F8016B5B
:1002100001F8016B6D1EF9D59142D6D370470000ED
:100220000023002400250026103A28BF78C1FBD8FF
:10023000520728BF30C148BF0B607047642918F0CF
:10024000EF82782918F02883732918F0E8850020B8
:1002500070471FB518F062FE1FBD10B510BD18F035
:100260002BFE1146FFF7F5FF00F010F818F049FEDD
:1002700003B4FFF7F2FF03BC08F0BEFE30BF72B656
:10028000704762B6704780F308887047002401F019
:10029000E5F901F033F813E0002001F032FA0446EA
:1002A000012C0AD10748007800F0200018B106A000
:1002B00018F038FA01E001F021F80A2008F07CFE7D
:1002C000EAE70000E0000020544350BFCDBBA7B6D2
:1002D000CBC1ACBDD3D2D1BEADBDA8C1A22CB2BBE7
:1002E000C4DCD6D8B8B4C1ACBDD30D0A0000000040
:1002F000704700BFFEE700BFFEE700BFFEE700BF9C
:10030000FEE7704770477047704700000CB500204B
:10031000019000907648006840F48030744908608D
:1003200000BF7348006800F4003000900198401C42
:100330000190009818B90198B0F5A04FF1D16C4820
:10034000006800F4003010B10120009001E00020AE
:1003500000900098012846D165484030006840F080
:1003600080506349403108606248006840F4404072
:10037000604908605E48083000685D4908310860DF
:100380000846006840F4004008600846006840F4F1
:10039000A05008605848091F0860081F006840F016
:1003A0008070091F086000BF5148006800F00070AD
:1003B0000028F9D040F20570504908604C480830D8
:1003C000006820F003004A490831086008460068C8
:1003D00040F00200086000BF45480830006800F0A7
:1003E0000C000828F8D10CBD10B54548006840F451
:1003F0007000434908603E48006840F001003C49F5
:10040000086000203A4908310860394800683D49D1
:100410000840374908603C48091D0860081F00680B
:1004200020F48020091F0860002031490C31086049
:10043000FFF76CFF4FF0006031498039086010BD54
:1004400070B500200022022300240221284D083527
:100450002D6805F00C0020B1042806D0082834D1FE
:1004600007E02A4D2A4E356033E02A4D284E35608C
:100470002FE01F4D2D1D2D68C5F380541C4D2D1DE3
:100480002D6805F03F0154B1224DB5FBF1F5184E32
:10049000361D3668C6F3881605FB06F209E01B4DCB
:1004A000B5FBF1F5124E361D3668C6F3881605FB0E
:1004B00006F20F4D2D1D2D68C5F301456D1C6B0017
:1004C000B2FBF3F5124E356003E0104D104E35606F
:1004D00000BF00BF064D08352D68C5F303150E4E4D
:1004E000705D0B4D2D68C540094E356070BD000034
:1004F000003802400070004008544007003C0240B1
:1005000088ED00E0FFFFF6FE103000240024F40028
:100510000000002000127A000400002010B54FF403
:100520008040F649088004F09FFC10BD10B5012002
:10053000F349086002F07AF802E0F2A018F0F2F84D
:1005400002F074F90028F8D010BD1CB527E04FF474
:100550007840F1490880F1A010210B46C822CDE96E
:10056000001000211E2001F0DEFF4FF4FA7008F0A9
:1005700023FDEEA010210B46C822CDE9001000217A
:100580001E2001F0D0FF4FF4FA7008F015FDEB4883
:10059000006808B9012000E00020E849086003F085
:1005A000A9FA0028D3D1E64890F8560030B10128C6
:1005B00008D002280AD0032810D10BE0E1A018F0DF
:1005C000B1F80BE0E5A018F0ADF807E0E9A018F0ED
:1005D000A9F803E0EDA018F0A5F800BF00BFD848C7
:1005E00090F82C10EFA018F09DF8D548B0F85410F2
:1005F000F3A018F097F8D248D0E91220030343EA99
:100600001251F3A018F08EF8CD48016DF6A018F045
:1006100089F81F20C0490880F9A010210B46C82284
:10062000CDE9001000211E2001F07DFFF8A010216F
:100630000B46C822CDE9001014211E2001F073FFE3
:1006400010200090BE48D0E91210030343EA115273
:1006500005231421862001F0A3FE1CBD70B50446BD
:10066000204617F055FF05462946EFA018F05AF826
:1006700070BD10B586B0002408F084FDEF4901225A
:100680000868EFA10AF030FAEC4901224868EDA1B0
:100690000AF02AFA0D2C2DD1EBA010210B46C8220E
:1006A000CDE9001096211E2001F03DFF4FF480524D
:1006B0000121ECA00BF08DFB04466CB9EAA00BF015
:1006C0009DFAEBA010210B46C822CDE9001096211F
:1006D0001E2001F028FF09E0ECA010210B46C822E3
:1006E000CDE9001096211E2001F01DFF4FF47A7015
:1006F00008F062FC22E000201021EBA20B46CDE9BD
:1007000000210290C82228211E200CF076FCC8206F
:1007100008F052FC4FF6FF70A623F022282100902B
:100720001E2001F092FCC82008F046FC83480068B7
:1007300008B9012000E000208049086004AA05A94A
:10074000DCA008F0BBFD0028D5D14FF478407249F9
:10075000088000201021D8A20B46CDE9002102908C
:10076000C82228211E200CF048FC00201021D5A210
:100770000B46CDE900210290C8223C211E200CF03E
:100780003CFC00201021D5A20B46CDE900210290AF
:10079000C82250211E200CF030FC1020009005983B
:1007A000820A05233C218E2001F0FAFD10200090E2
:1007B0000498820A052350218E2001F0F1FD06B035
:1007C00010BD10B58AB040F2473140F2E73004F076
:1007D0009BFEC8A010210B46C822CDE900106E2157
:1007E0001E2001F0A0FEC7A017F09CFF29E0CAA0C0
:1007F00010210B46C822CDE900106E211E2001F009
:1008000092FEC5A017F08EFF4FF4966008F0D4FB5F
:100810004FF6FF707E23E6226E2100901E2001F02D
:1008200014FCC2A010210B46C822CDE900106E2195
:100830001E2001F078FEBDA017F074FF642008F0C0
:10084000BBFB0CF0CEFC0028D1D1BBA010210B4685
:10085000C822CDE900106E211E2001F064FEBBA06D
:1008600017F060FFBFA010210B46C822CDE9001091
:1008700082211E2001F057FEC0A017F053FF01E0B7
:100880000CF0BEFDC348807D022803D0C148807DA6
:10089000FF28F5D14FF6FF700090BF4843880288CB
:1008A0006E211E2001F0D1FBBCA010210B46C822F6
:1008B000CDE900106E211E2001F035FEBCA017F01E
:1008C00031FFB448807D022817D1B248407BB1493E
:1008D000097BCDE90010AF48C37A827ABAA102A899
:1008E00017F02CFFAB48407B0090AA48037BC27AEC
:1008F000817ABAA017F016FF93E17BE11808024055
:10090000BC024042C4A3BFE9C1ACBDD3CAA7B0DC9E
:10091000A3A10D0A0000000016000020534420434C
:10092000617264204572726F72210000506C6561C3
:10093000736520436865636B20210000B0824142EB
:10094000080200204361726420547970653A534470
:1009500053432056312E310D0A000000436172646A
:1009600020547970653A534453432056322E300D4B
:100970000A0000004361726420547970653A534460
:1009800048432056322E300D0A0000004361726445
:1009900020547970653A4D4D4320436172640D0ACD
:1009A0000000000043617264204D616E75666163F2
:1009B000747572657249443A25640D0A000000009E
:1009C00043617264205243413A25640D0A000000DD
:1009D000436172642043617061636974793A25648C
:1009E000204D420D0A0000004361726420426C6F8A
:1009F000636B53697A653A25640D0A0D0A0000009D
:100A000053442043617264204F4B2020202000007B
:100A1000534420436172642053697A653A20202050
:100A20002020204D42000000C4DAB4E6D5BCD3C378
:100A3000C2CACEAAA3BA2564252500003415002019
:100A4000303A000031000000466C61736820446950
:100A5000736B20466F726D617474696E672E2E2EF3
:100A600000000000313A0000313A766569730000F9
:100A7000466C617368204469736B20466F726D61C8
:100A8000742046696E69736800000000466C6173EB
:100A900068204469736B20466F726D6174204572E3
:100AA000726F7220000000005344204552524F5292
:100AB00021000000300000004641544653204F4BB7
:100AC00000000000534420746F74616C2073697AD5
:100AD000653A2020202020204D420000534420660B
:100AE0007265652073697A653A2020202020204DA8
:100AF000420000006C77495020496E6974696E6746
:100B00002E2E2E006C77495020496E6974696E67ED
:100B10002E2E2E0D0A0000006C77495020496E6978
:100B200074206661696C656421000000526574720E
:100B300079696E672E2E2E006C77495020496E69B8
:100B40007420537563636573736564006C774950F3
:100B500020496E6974205375636365737365640D12
:100B60000A0000004448435020495020636F6E66DD
:100B70006967696E672E2E2E0000000044484350BE
:100B800020495020636F6E666967696E672E2E2E4E
:100B90000D0A0000B41500201A00002044484350FC
:100BA00020496E69742053756363657373656400CF
:100BB0004448435020496E697420537563636573DC
:100BC0007365640D0A000000444843502049503AC0
:100BD00025642E25642E25642E2564004448435048
:100BE0002049503A25642E25642E25642E25640D57
:100BF0000A000000FE48407BFD49097BCDE900105A
:100C0000FB48C37A827AFBA102A817F097FDF84847
:100C1000407B0090F648037BC27A817AFBA017F0F4
:100C200081FD02A810210B46D222CDE900108221BD
:100C30001E2001F078FC04F072FB044604F0020070
:100C400068B1F8A010210B46C822CDE9001096210A
:100C50001E2001F068FCF8A017F064FD0CE0FCA079
:100C600010210B46C822CDE9001096211E2001F06C
:100C70005AFCFCA017F056FD0AB010BD2DE9F04358
:100C800085B04FF00008FDA207CA02AB07C302A857
:100C9000FD4908604FF6FF7000F000FF4FF4784008
:100CA000FA490880C821002017F0D9FC044614B97D
:100CB00005B0BDE8F083CE48407BCD49097BCDE946
:100CC0000010CB48C37A827AF1A1204617F036FD96
:100CD00010200346D2228221CDE900041E2001F01B
:100CE00022FC41F69072F0A1204617F027FD10205B
:100CF0000346D2229621CDE900041E2001F013FC08
:100D000011F029FE0746A7B141F69072EA4938462C
:100D100011F080FB06464EB9FF21384611F0D1FB99
:100D20008146E649484611F05DFE04E04FF00108B7
:100D300001E04FF001081F20D449088081E0002025
:100D400000F0DFFC0546022D00D17EE0012D05D12B
:100D5000DB48007840F08000D9490870D848007816
:100D600000F0400020B34FF6FF700090D548408857
:100D7000401E83B2D3480088401E82B2D2211E207A
:100D800001F063F9D0481021CDE90010CD4840882A
:100D9000D23883B2CB4800881E3882B2D2211E20BE
:100DA00001F0C1FBC648007820F04000C44908703B
:100DB000C348007800F0200068B38D48407A8C4921
:100DC000097ACDE900108A48C3798279BFA120460B
:100DD00017F0B4FC10200346E622AA21CDE9000456
:100DE0001E2001F0A0FB4FF47840A8490880BDA068
:100DF0001021CDE90010B3484088BE3883B2B14815
:100E000000881E3882B2BE211E2001F08CFB1F20FC
:100E10009E49088013E0AA48007800F0200070B9CD
:100E20004FF6FF700090A7484088401E83B2A54847
:100E30000088401E82B2AA211E2001F006F90CF0A3
:100E4000DFFAB8F1000F3FF47AAF00BF0021384657
:100E50000CF042FD002148460CF03EFD0CF079FEFE
:100E60009421384617F071FE9421484617F06DFE24
:100E70002146002017F0E3FB4FF6FF7000F00EFE56
:100E80001F20824908809BA010210B46C822CDE973
:100E900000105A211E2001F046FB9AA017F042FCD8
:100EA0009DA010210B46C822CDE900106E211E2006
:100EB00001F039FB00BFFBE62DE9FE434FF00008CF
:100EC00000270FF264294FF6FF7000F0E7FD4FF4A2
:100ED00078406E4908807D200CF043FCC82100203A
:100EE00017F0BDFB04460CB9BDE8FE834048407BCB
:100EF0003F49097BCDE900103D48C37A827A8EA133
:100F0000204617F01BFC3A48407B00903848037B92
:100F1000C27A817A8EA017F005FC10200346D222F7
:100F20009621CDE900041E2001F0FDFA3048407AF8
:100F30002F49097ACDE900102D48C37982798AA119
:100F4000204617F0FBFB2A48407A00902848037A95
:100F5000C27981798AA017F0E5FB10200346D222DE
:100F6000AA21CDE900041E2001F0DDFA41F69972B4
:100F700089A1204617F0E2FB41F699718AA017F08B
:100F8000D1FB10200346D222BE21CDE900041E2051
:100F900001F0C9FA1F203D49088088A010210B46A6
:100FA000D222CDE9001011461E2001F0BCFA14F047
:100FB000B1FE0646002E18D00D48407A01060C48B6
:100FC000007A41EA00410A48C07941EA0020084914
:100FD00089790843029041F6997202A9304614F0CB
:100FE00041FE0546002D01D1F4E033E12FE1000080
:100FF000B41500205374617469632049503A256424
:101000002E25642E25642E2564000000537461741F
:1010100069632049503A25642E25642E25642E25C7
:10102000640D0A0045746865726E657420537065BE
:1010300065643A3130304D0045746865726E657490
:101040002053706565643A3130304D0D0A00000060
:1010500045746865726E65742053706565643A31D5
:10106000304D000045746865726E6574205370657C
:1010700065643A31304D0D0A0000000031323334DE
:101080003536373839000000D40000201600002023
:101090005365727665722049503A25642E25642E78
:1010A00025642E2564000000536572766572205019
:1010B0006F72743A2564000000AC0108C1DA0008C0
:1010C000D80000201A000020001E0020436C696533
:1010D0006E742049503A25642E25642E25642E25F1
:1010E000640000005265636569766520446174613F
:1010F0003A000000436F6E6E656374206272656132
:101100006BA3A100436F6E6E6563742062726561AC
:101110006B210D0A000000004B4559313A436F6EB8
:101120006E65637400000000554450B2E2CAD4CA30
:10113000B5D1E921000000004C6F63616C2049507B
:101140003A25642E25642E25642E256400000000B7
:101150004C6F63616C2049503A25642E25642E251E
:10116000642E25640D0A000052656D6F7465204978
:10117000503A25642E25642E25642E256400000037
:1011800052656D6F74652049503A25642E25642E92
:1011900025642E25640D0A0052656D6F746520501C
:1011A0006F72743A2564000052656D6F746520504B
:1011B0006F72743A25640D0A0000000053544154C4
:1011C00055533A446973636F6E6E65637465640D5D
:1011D0000A00000041F69972FA49304614F003FC07
:1011E0000546002D30D10022F749304614F071FD3C
:1011F000F6A010210B46D222CDE9001011461E2088
:1012000001F091F9F6A017F08DFAFA48007840F055
:101210002000F84908704FF47840F7490880AFF291
:101220003C101021CDE90010F4484088BE3883B24C
:10123000F24800881E3882B2E6211E2001F073F9C0
:101240001F20ED49088007E04FF0010804E04FF04F
:10125000010801E04FF001083FE0002000F051FAE2
:101260000746022F00D13BE0012F03D1494630460B
:101270000CF056FADF48007800F0400040B34FF61B
:10128000FF700090DD484088401E83B2DB48008834
:10129000401E82B2FA211E2000F0D7FED84810214D
:1012A000CDE90010D5484088E63883B2D34800889D
:1012B0001E3882B2FA211E2001F035F9D049D1A0A2
:1012C00017F030FACB48007820F04000C949087088
:1012D0000CF096F8022007F06FFEB8F1000FBCD0BA
:1012E00000BF4FF6FF7000F0D9FB30460CF068FAF3
:1012F0002146002017F0A3F900BFF5E52DE9F041E4
:1013000086B04FF000080027AFF2902207CA02AB68
:1013100007C302A8BC4908607D200CF07BFC4FF697
:10132000FF7000F0BBFB4FF47840B3490880C82140
:10133000002017F094F9044614B906B0BDE8F08116
:10134000B248407BB149097BCDE90010AF48C37A70
:10135000827AAFF21C21204617F0F0F910200346E4
:10136000D2229621CDE900041E2001F0DCF8A74826
:10137000407AA649097ACDE90010A448C379827958
:10138000AFF21C21204617F0D9F910200346D222D3
:10139000AA21CDE900041E2001F0C5F841F697729C
:1013A0009BA1204617F0CAF910200346D222BE2185
:1013B000CDE900041E2001F0B6F81F208E490880F8
:1013C00098A010210B46D222CDE9001011461E2014
:1013D00001F0A9F811F0BFFA0546B5B18B48407A83
:1013E00001068A48007A41EA00418848C07941EA0A
:1013F000002086498979084305908F4B41F6977202
:1014000005A9284611F0EDF801E04FF00108AAE027
:10141000002000F076F90646022E00D1A7E0012E4A
:1014200005D18648007840F08000844908708348E0
:10143000007800F0400020B34FF6FF7000906F4836
:101440004088401E83B26D480088401E82B2FA2157
:101450001E2000F0FAFD7A481021CDE900106748FF
:101460004088E63883B2654800881E3882B2FA2187
:101470001E2001F058F87148007820F040006F49B4
:1014800008706E48007800F0200040B34FA0102193
:10149000CDE9001059484088BE3883B257480088CB
:1014A0001E3882B2D2211E2001F03DF84FF4784060
:1014B00051490880AFF2D4301021CDE900104F48D7
:1014C0004088BE3883B24D4800881E3882B2E6217B
:1014D0001E2001F028F81F20474908801DE05748CA
:1014E000007800F02000C0B94EA010210B46BE22AB
:1014F000CDE90010D2211E2001F015F84FF6FF7043
:1015000000903E484088401E83B23C480088401E00
:1015100082B2E6211E2000F098FD0BF071FF022040
:1015200007F04AFD781CC7B2C82F1CD14348007889
:1015300000F0200070B9002128460CF09AFB11F051
:101540000AFA054635B13C4B41F6977205A9284683
:1015500011F047F800273B48006808B9012000E077
:10156000002038490860B8F1000F3FF451AF00BFC8
:10157000002128460CF07DFB4FF6FF7000F08EFA3C
:101580001F201D490880AFF2944010210B46C8224D
:10159000CDE900105A211E2000F0C5FFAFF28840AF
:1015A00010210B46C822CDE900106E211E2000F04C
:1015B000BAFF25A017F0B6F82146002017F03FF833
:1015C00000BFBAE600AC01085DD600085354415490
:1015D00055533A436F6E6E65637465642020200036
:1015E0005354415455533A436F6E6E65637465644A
:1015F0000D0A0000D0000020160000201A00002074
:101600000016002025730A00DC000020B41500201D
:1016100052656D6F7465776F20506F72743A2564F0
:10162000000000005354415455533A446973636FAA
:101630006E6E6563746564009DDE0008E000002046
:10164000C81E0020B0824142436F6E6E65637420F5
:10165000627265616BA3A10D0A00000010B5022043
:101660000246174B19684FF6FF031940154B0B4301
:1016700043EA0221124B196000BFA82007F03AFC90
:101680004FF4E13007F0C7FC00F01AFA0E49086881
:10169000804700F0A5FF00F019F803F062FBFEF7A9
:1016A0003DFF0BF0A0FB002016F017FF012016F005
:1016B00014FFFEF7DEFFFEF748FFFFF782F810BDCC
:1016C0000CED00E00000FA05340000201CB50121FB
:1016D000032004F0A7FF0420009000208DF80400F0
:1016E00002208DF8070069461C4804F0FDFC01202B
:1016F000009002208DF807006946194804F0F4FCB8
:101700001CBD10B5044614B10120164908701548D7
:101710000078C0B114480068012803D0134800685D
:10172000012810D10A2007F047FC00200D4908705D
:101730000D480068012800D110BD0C480068012840
:101740000AD10220F8E70848006828B9074800686D
:1017500010B90120034908700020EDE700040240A1
:101760000000024014000020088240420002404273
:1017700001B5BDF800000090BDF80000FE490880EA
:1017800008BD01B5BDF800000090BDF80000FA49A1
:10179000891C088008BD08B5F748801C00880090A7
:1017A000BDF8000008BD30B5BF20FFF7E1FFFFF72F
:1017B000F2FF0246FFF7EFFF0246FFF7ECFF02469B
:1017C000FFF7E9FF0446FFF7E6FF054605EB0420B7
:1017D00082B2104630BDE84A1080921C11807047DA
:1017E00010B504462046FFF7C3FF052007F09CFB19
:1017F000FFF7D1FF10BD70B504460D461E462A20E6
:10180000FFF7B6FF2012FFF7BCFFE0B2FFF7B9FF0A
:101810002812FFF7B6FFE8B2FFF7B3FF2B20FFF760
:10182000A7FF1012FFF7ADFFD0B2FFF7AAFF3012EB
:10183000FFF7A7FFF0B2FFF7A4FF2C20FFF798FFF8
:1018400070BD00B5CD484088401E83B2CB480088AB
:10185000401E81B200221046FFF7CDFF00BDC649F1
:10186000891C0880704700B52C20FFF781FF00BD60
:1018700000BF011EA0F10102D0B2FAD1704710B52D
:1018800002460C462A20FFF773FF1012FFF779FF7C
:10189000D0B2FFF776FF2B20FFF76AFF2012FFF789
:1018A00070FFE0B2FFF76DFF2E20FFF761FFB24837
:1018B000801C028802882E20FFF75AFFAE48801C49
:1018C0000288028802F4784002F0FC0140EAC1027A
:1018D000A948801C048842EAE42010BD00B511200C
:1018E000FFF746FF2920FFF743FF00BD00B5282082
:1018F000FFF73EFF1020FFF73BFF00BD10B502468B
:101900000C462A20FFF734FF1012FFF73AFFD0B23F
:10191000FFF737FF994909880812FFF732FF974907
:101920000878FFF72EFF2B20FFF722FF2012FFF78A
:1019300028FFE0B2FFF725FF904949880812FFF71A
:1019400020FF8E498878FFF71CFF10BD30B5044694
:101950000D4629462046FFF7D1FFFFF784FF884850
:1019600000888549891C088030BD30B504460D4685
:101970002A20FFF7FDFE2012FFF703FFE0B2FFF77A
:1019800000FF2012FFF7FDFEE0B2FFF7FAFE2B206A
:10199000FFF7EEFE2812FFF7F4FEE8B2FFF7F1FEC4
:1019A0002812FFF7EEFEE8B2FFF7EBFE2C20FFF760
:1019B000DFFE1046FFF7E5FE30BD00B502467AB9FE
:1019C0003620FFF7D5FE0020FFF7DBFE00206B4935
:1019D00088714FF4A07008804FF4F07048800EE0DA
:1019E0003620FFF7C5FE6020FFF7CBFE01206349DC
:1019F00088714FF4F07008804FF4A070488000BDEB
:101A000070B50546002400265C488079C0B1082DD9
:101A100015D2DFE805F00406080A0C0E10120625A0
:101A20000DE007250BE0042509E0052507E0012569
:101A300005E0002503E0032501E0022500BF00BF0B
:101A4000082D1CD2DFE805F00406090C0F1215184A
:101A500000BF14E044F0800411E044F040040EE0C4
:101A600044F0C0040BE044F0200408E044F0A0047B
:101A700005E044F0600402E044F0E00400BF00BF71
:101A8000362644F480542C20FFF772FE2E20FFF7F8
:101A9000A7FE21463046FFF79EFE70BD70B5044696
:101AA00000263648058840884543FFF7CAFE00BF38
:101AB00003E03148801C0480761CAE42F9D370BD2F
:101AC00000B5A1B0002020900121182004F0AAFD4B
:101AD0000121084604F0DEFD4CF6B3701E90022092
:101AE0008DF87C0000208DF87E0003208DF87D00AD
:101AF00001208DF87F001EA9224804F0F5FA4FF668
:101B000080701E9002208DF87C0000208DF87E00F1
:101B100003208DF87D0001208DF87F001EA91A4852
:101B200004F0E2FA0C220021164804F068FB0C22B3
:101B30000121144804F063FB0C220421114804F035
:101B40005EFB0C2205210F4804F059FB0C220721F3
:101B50000C4804F054FB0C2208210A4804F04FFB07
:101B60000C220921074804F04AFB0C220A210548EF
:101B700004F045FB0C2209E0FEFF01601A00002082
:101B800016000020000C0240001002400B21FE480D
:101B900004F035FB0C220E21FB4804F030FB0C2234
:101BA0000F21F94804F02BFB0C220721F74804F021
:101BB00026FB0C220821F54804F021FB0C22092108
:101BC000F24804F01CFB0C220A21F04804F017FB39
:101BD0000C220B21ED4804F012FB0C221146EB48BD
:101BE00004F00DFB0C220D21E84804F008FB0C2248
:101BF0000E21E64804F003FB0C220F21E34804F019
:101C0000FEFA1021E04804F0EBFA2021DE4804F04F
:101C1000E7FA8021DC4804F0E3FA0A2007F0CCF967
:101C2000022008900020099005200A9000200B90C7
:101C30000C900D900E90072001900020029008203B
:101C40000390002004900590069007900F9010904C
:101C5000119010201290002013901590149016905F
:101C600017904FF480501890002019904FF4804046
:101C70001A9000201B9008A81C9001A81D900FA886
:101C800003F0E3FE0121002003F06AFF142007F0B7
:101C900093F9B020FFF76CFD0420FFF772FDFFF70A
:101CA00082FDBB49888008468188BAA016F03AFDBB
:101CB000B748808841F2295188427CD13A20FFF709
:101CC00057FD5520FFF75DFDB420FFF75AFD0020BA
:101CD000FFF757FDC020FFF74BFD0320FFF751FD35
:101CE000DF20FFF74EFD4020FFF74BFD1220FFF7EE
:101CF00048FD0020FFF745FD0120FFF742FD0020D1
:101D0000FFF73FFD4320FFF73CFDC120FFF730FD0B
:101D10000520FFF736FD2F20FFF733FD0820FFF7E2
:101D200030FD0820FFF72DFD0020FFF72AFDC4201D
:101D3000FFF71EFD6320FFF724FD0020FFF721FDC4
:101D40000820FFF71EFD0820FFF71BFDC820FFF746
:101D50000FFD0620FFF715FD0C20FFF712FD1620E2
:101D6000FFF70FFD2420FFF70CFD3020FFF709FDE2
:101D70004820FFF706FD3D20FFF703FD2820FFF771
:101D800000FD2020FFF7FDFC1420FFF7FAFC0C20DB
:101D9000FFF7F7FC0420FFF7F4FC0620FFF7F1FC47
:101DA0000C20FFF7EEFC1620FFF7EBFC2420FFF7DA
:101DB000E8FC302000E037E1FFF7E3FC4820FFF7C4
:101DC000E0FC3D20FFF7DDFC2820FFF7DAFC2020B7
:101DD000FFF7D7FC1420FFF7D4FC0C20FFF7D1FC51
:101DE0000420FFF7CEFCC920FFF7C2FC0620FFF756
:101DF000C8FC0C20FFF7C5FC1620FFF7C2FC24200E
:101E0000FFF7BFFC3020FFF7BCFC4820FFF7B9FC10
:101E10003D20FFF7B6FC2820FFF7B3FC2020FFF79A
:101E2000B0FC1420FFF7ADFC0C20FFF7AAFC042047
:101E3000FFF7A7FC0620FFF7A4FC0C20FFF7A1FC8E
:101E40001620FFF79EFC2420FFF79BFC3020FFF7B5
:101E500098FC4820FFF795FC3D20FFF792FC2820D6
:101E6000FFF78FFC2020FFF78CFC1420FFF789FC84
:101E70000C20FFF786FC0420FFF783FCB620FFF759
:101E800077FC0020FFF77DFCCA20FFF771FC0620DD
:101E9000FFF777FC0C20FFF774FC1620FFF771FCAE
:101EA0002420FFF76EFC3020FFF76BFC4820FFF783
:101EB00068FC3D20FFF765FC2820FFF762FC20202E
:101EC000FFF75FFC1420FFF75CFC0C20FFF759FCC8
:101ED0000420FFF756FC0620FFF753FC0C20FFF709
:101EE00050FC1620FFF74DFC2420FFF74AFC302061
:101EF000FFF747FC4820FFF744FC3D20FFF741FC7B
:101F00002820FFF73EFC2020FFF73BFC1420FFF7C2
:101F100038FC0C20FFF735FC0420FFF732FCD02002
:101F2000FFF726FC9520FFF72CFC0620FFF729FC85
:101F30000820FFF726FC1020FFF723FC3F20FFF7C7
:101F400020FCD120FFF714FC0220FFF71AFC282008
:101F5000FFF717FC2820FFF714FC4020FFF711FCC7
:101F6000E120FFF705FC0020FFF70BFC0020FFF746
:101F700008FC0020FFF705FC0020FFF702FC002012
:101F8000FFF7FFFB00200DE0000C024000100240B4
:101F90001A0000204C43442049443A2025780D0A79
:101FA00000000000FFF7EDFBE220FFF7E1FB8020DF
:101FB000FFF7E7FB2A20FFF7DBFB0020FFF7E1FB41
:101FC0000020FFF7DEFB0120FFF7DBFB3F20FFF7E0
:101FD000D8FB2B20FFF7CCFB0020FFF7D2FB002023
:101FE000FFF7CFFB0120FFF7CCFBDF20FFF7C9FB9A
:101FF0001120FFF7BDFB782006F0DEFF2920FFF758
:10200000B7FBC120FFF7B4FB0520FFF7BAFB2F2079
:10201000FFF7B7FB0820FFF7B4FB0820FFF7B1FB81
:102020000020FFF7AEFB04E0FEA016F07BFB21B022
:1020300000BD0020FFF7C1FC0020FFF7E1FCFE48D7
:102040000088FFF72BFD00BFF1E72DE9F04F0546B3
:102050000E4617469846DDF824A04FF0000B781B7B
:10206000401C1FFA80FB344613E021462846FFF748
:1020700045FCFFF7F8FB4FF0000906E0EF48A0F839
:1020800000A009F101001FFA80F9D945F6DB601CB8
:1020900084B24445E9DDBDE8F08F2DE9F84F0746ED
:1020A0000D4690469946DDF828B0A8EB0700401C85
:1020B0001FFA80FAA9EB0500401C80B200900024B2
:1020C00014E0281981B23846FFF718FCFFF7CBFB64
:1020D000002607E004FB0A603BF81000D74908809F
:1020E000701C86B25645F5DB601C84B200988442B1
:1020F000E7DBBDE8F88F2DE9FF4F84B081468A46C3
:102100000020039002900698A0EB09050798A0EB29
:102110000A06CDF80490CDF800A0002D01DD0127BE
:1021200005E00DB9002702E04FF0FF376D42002EA9
:1021300002DD4FF0010806E016B94FF0000802E09A
:102140004FF0FF387642B54201DD2C4600E03446C0
:102150004FF0000B21E0009A91B2019A90B2FFF784
:10216000F5FB0398284403900298304402900398AA
:10217000A04205DD0398001B0390019838440190AC
:102180000298A04205DD0298001B0290009840448E
:1021900000900BF101001FFA80FB601C8345DADD23
:1021A00008B0BDE8F08FF0B504460D4616461F4650
:1021B0002B46324629462046FFF79DFF3B462246E6
:1021C00029462046FFF797FF3B46324639462046D0
:1021D000FFF791FF3B46324629463046FFF78BFF1B
:1021E000F0BD2DE9F04306460F46904600244546D3
:1021F0000320A0EB48093CE07A1B91B2321990B25F
:10220000FFF7A4FB3A1B91B2721990B2FFF79EFB45
:102210003A1991B2721990B2FFF798FB7A1991B2FC
:10222000321990B2FFF792FB7A1991B2321B90B239
:10223000FFF78CFB3A1991B2721B90B2FFF786FB45
:102240007A1B91B2321B90B2FFF780FB3A1B91B21E
:10225000721B90B2FFF77AFB641CB9F1000F03DA2E
:10226000A000801D814404E0601B80000A3081448E
:102270006D1EAC42C0DDBDE8F0832DE9F84F80460D
:102280000E4617461C46B3462046E31704EB53732D
:10229000DB1021464FEAE47C04EB5C7C4FEAEC0C5B
:1022A000A4EBCC0CBCF1000F02D04FF0010C01E00C
:1022B0004FF0000C6344224604EBD27C4FEA6C0CD6
:1022C00003FB0CF3DBB20093A7F12000C7B200259B
:1022D00056E00C2C07D107EB4700594901EB800071
:1022E00010F8059013E0102C05D1564800EB0710AC
:1022F00010F805900BE0182C07D107EBC7005249E6
:1023000001EB800010F8059001E0BDE8F88F4FF078
:10231000000A2FE009F0800030B14C4802883146B5
:102320004046FFF722FB07E00A9828B94248028896
:1023300031464046FFF719FB4FEA49604FEA106902
:10234000701C86B242484088B04200DCDDE7A6EB54
:102350000B00A0420AD15E4608F101001FFA80F886
:102360003B480088404500DCCFE706E00AF1010069
:1023700000F0FF0ABAF1080FCCDB00BF681CC5B241
:1023800000988542A5DB00BFBFE710B502460120DB
:1023900000E050430B1EA1F10104E1B2F9D110BDE0
:1023A0002DE9FF4F81B0074691461E460E9D4FF026
:1023B000000A002453E0301B401EC1B20A20FFF780
:1023C000E4FFB9FBF0F00A21B0FBF1F201FB1208C7
:1023D000BAF1000F16D1701EA04213DDB8F1000F44
:1023E0000ED10020AB4605EBDB71491001FB0471F7
:1023F000009088B22B4620220299FFF73EFF2CE086
:102400004FF0010A0020AB4605EBDB71491001FBE0
:102410000471009088B208F13001CAB22B460299CB
:1024200018E000004C4344B3F5CABCBBAFCAA7B028
:10243000DCA3A10D0A0000001800002000000260CB
:10244000268F01089A9301088A9901081600002036
:102450001A000020FFF711FF00BF601CC4B2B44295
:10246000A9DB05B0BDE8F08F2DE9FF4F82B006462D
:1024700092461F46DDE90F480020019000254DE0FF
:10248000781B401EC1B20A20FFF77FFFBAFBF0F0B5
:102490000A21B0FBF1F201FB1209019850BB781E32
:1024A000A84227DDB9F1000F22D108F0800078B1F1
:1024B00008F00100A34604EBDB71491001FB056144
:1024C000009088B2234630220399FFF7D6FE0EE033
:1024D00008F00100A34604EBDB71491001FB056124
:1024E000009088B2234620220399FFF7C6FE13E02E
:1024F0000120019008F00100A34604EBDB714910B4
:1025000001FB0561009088B209F13001CAB223468F
:102510000399FFF7B2FE00BF681CC5B2BD42AFDB36
:1025200006B0BDE8F08F2DE9F84704460D46904609
:102530009946DDE9096704F0FF0A08EB04001FFA79
:1025400080F809EB05001FFA80F916E0444502DB2C
:102550005446A81985B24D4500DB14E000200090D8
:102560003A78334629462046FFF787FE304606EB89
:10257000D07104EB61018CB27F1C38787E2802DCBC
:1025800038782028E2DA00BFBDE8F8872DE9F04F5F
:1025900080460C4615461E46099F4FF0000B05FB72
:1025A00006FB3019401E83B205EB0800401E81B2C5
:1025B00022464046FFF71FF94FF000090CE097F85C
:1025C00000A078780AEB00201FFA80FA5046FFF747
:1025D000D8F8BF1C09F10109D945F0D3BDE8F08F47
:1025E0001CB50121082004F01DF84FF44050009064
:1025F00001208DF8040000208DF8060003208DF8DE
:10260000050001208DF807006946074803F06CFDBE
:102610004FF40051044803F0E5FD4FF480510248A7
:1026200003F0DEFD1CBD0000000C02401CB50121C2
:10263000042003F0F7FF01208DF8040000208DF83E
:10264000060001208DF8050000208DF807004FF4EA
:10265000005000906946CB4803F046FD4FF480409F
:1026600000906946C74803F03FFD00208DF8040044
:102670008DF8060001208DF80700C0030090694620
:10268000C04803F031FD4FF48040BE491831088046
:102690001CBD70B505460C464FF40050B9491A31BF
:1026A000088040000880284602F030FB064620469D
:1026B00002F02CFB4FF48040B249183108803046BC
:1026C00070BD70B504464FF40050AE491A31088011
:1026D00040000880204602F019FBFF2002F016FBA4
:1026E00005464FF48040A74918310880284670BD40
:1026F0002DE9F04107460D4616464FF40050A1491A
:102700001A31088040000880384602F0FFFA8046FF
:10271000002405E0FF2002F0F9FA2855601CC4B23D
:10272000B442F7DB4FF480409649183108804046A8
:10273000BDE8F0812DE9F04107460C4615464FF4FF
:10274000005090491A31088040000880384602F055
:10275000DDFA8046002605E014F8010B02F0D6FAF7
:10276000701CC6B2AE42F7DB4FF480408549183189
:1027700008804046BDE8F08110B54FF40050814913
:102780001A310880052280492A20FFF7D3FF012152
:102790002120FFF77EFF01212220FFF77AFF282169
:1027A0002520FFF776FF20213120FFF772FF0F2150
:1027B0002620FFF76EFF0F212020FFF76AFF4FF45E
:1027C000005070491831088010BD10B54FF400500A
:1027D0006C491A31088005226C493020FFF7AAFFA6
:1027E000052269492A20FFF7A5FF01212120FFF7D3
:1027F00050FF01212220FFF74CFF0F212420FFF77B
:1028000048FF28212520FFF744FF0F212620FFF74E
:1028100040FF0E212020FFF73CFF4FF400505949A4
:1028200018310880642006F07FFB10BD1CB505221E
:1028300056493020FFF77EFF052269461020FFF73A
:1028400057FF524802789DF8001051A015F06AFF1A
:102850004E4842789DF8011056A015F063FF4B4892
:1028600082789DF802105CA015F05CFF4748C278A2
:102870009DF8031061A015F055FF444802799DF8BA
:10288000041067A015F04EFF052269463F4816F078
:102890009EF808B901201CBD0020FCE770B5064673
:1028A00000254FF4005037491A3108802022314664
:1028B000A020FFF73FFF4FF4005032491831088045
:1028C00000E06D1C2F481030006800F4004018B183
:1028D0004FF6FF708542F4D34FF6FF70854201D367
:1028E000002070BD0720FFF7ECFE0446214627209C
:1028F000FFF7CFFEFF21E120FFF7CBFE04F0100031
:1029000008B11020EDE704F0200008B12020E8E72E
:102910000020E6E770B5064600254FF4005019493F
:102920001831088000E06D1C16481030006800F473
:10293000004018B14FF6FF708542F4D34FF6FF7098
:10294000854201D3002070BD4FF400500D491A316B
:1029500008800720FFF7B5FE044621462720FFF731
:1029600098FE04F0400050B1202231466120FFF76C
:10297000BFFEFF21E220FFF78CFE4020E3E70020AE
:10298000E1E70000000802402700002022000020AC
:1029900075634275665B305D203D2025642C2054B4
:1029A000585F414444524553535B305D203D2025E0
:1029B000640D0A0075634275665B315D203D20251C
:1029C000642C2054585F414444524553535B315D5D
:1029D000203D2025640D0A0075634275665B325DFB
:1029E000203D2025642C2054585F414444524553D7
:1029F000535B325D203D2025640D0A0075634275EE
:102A0000665B335D203D2025642C2054585F414493
:102A100044524553535B335D203D2025640D0A002D
:102A200075634275665B345D203D2025642C20541F
:102A3000585F414444524553535B345D203D20254B
:102A4000640D0A0010B5022006F06EFA10BD1CB528
:102A50000121022003F0E6FD4FF4C0600090012048
:102A60008DF8040000208DF8060001208DF8070085
:102A70006946844803F038FB1CBD10B581480068E6
:102A800020F440207F4908600846006840F4802018
:102A9000086001207C4908607C49C1F8A8021E201A
:102AA00006F042FA002078490860FFF7CBFF0020CB
:102AB0007649C1F8A80210BD10B57248006820F42C
:102AC0004020704908600846006840F48020086093
:102AD00001206D49091D08601E2006F025FA00201E
:102AE0006A49C1F8A402FFF7ADFF012066490860FA
:102AF00010BD10B500246348006820F440206149EF
:102B0000086008460068086001205F4908605F4966
:102B1000C1F8A802FFF796FF09E0601CC4B2FA2CC6
:102B200003DDFFF7C9FF012010BDFFF78BFF5648FB
:102B3000803800680028F0D15349091D086000BFA3
:102B4000F2E710B500205049091D08604D480068A3
:102B500020F440204B4908600846006840F480207B
:102B60000860FFF76FFF00204849C1F8A402FFF793
:102B700069FF01204449091D0860FFF763FF002039
:102B80004249C1F8A80210BD10B500203E49091DF8
:102B900008603C48006820F440203A490860084634
:102BA000006840F480200860FFF74CFF012037499F
:102BB000C1F8A402FFF746FF01203349091D086050
:102BC000FFF740FF00203149C1F8A80210BD70B5E1
:102BD00004462C48006820F440202A490860084632
:102BE000006840F48020086000202749091D086023
:102BF000FFF728FF002512E0E0092349086060067E
:102C0000040E01202149C1F8A802FFF71BFF002094
:102C10001D49091D0860FFF715FF681CC5B2082D86
:102C2000EADB70BD70B5054600241648006820F444
:102C30004020144908600846006808601E2006F01D
:102C400073F9002613E000200F49091D0860FFF703
:102C5000F9FE01200D49C1F8A8026006040E0A48D9
:102C60008038006808B1601CC4B2701CC6B2082E5F
:102C7000E9DB15B9FFF788FF01E0FFF762FF2046A7
:102C800070BD000000040240A48240420080404227
:102C90002DE9F04105460E4617464FF00008FFF7B4
:102CA000ECFE7020FFF793FFFFF723FFE8B2FFF77A
:102CB0008EFFFFF71EFF00240BE0305DFFF787FF5C
:102CC000FFF717FF8046B8F1000F00D003E0601C4B
:102CD000C4B2BC42F1DB00BFFFF7EEFE4046BDE8E8
:102CE000F0812DE9F04106460F461546FFF7C5FE77
:102CF0007020FFF76CFFFFF7FCFEF0B2FFF767FFF5
:102D0000FFF7F7FEFFF7B9FE7120FFF760FFFFF74F
:102D1000F0FE00240BE0691EA14201D0012100E079
:102D200000210846FFF77EFF3855601CC4B2AC4254
:102D3000F1DBFFF7C1FEBDE8F0810EB501210220F5
:102D400003F070FC0120009000208DF804008DF845
:102D5000060003208DF8050001208DF80700694664
:102D6000834803F0C1F9FFF772FE322006F024F920
:102D700000208DF80800012202A9FFF789FF012237
:102D800002A9A420FFF784FF16208DF80800012275
:102D900002A98020FFF77CFF0C208DF8080001229B
:102DA00002A98820FFF774FF022202A9A120FFF7E1
:102DB00098FF9DF8080010280ED19DF809000528FD
:102DC0000AD19DF809009DF8082000EB022169A0B6
:102DD00015F0A8FC00200EBD0120FCE771B581B004
:102DE0000024002666480078401C654908700846A3
:102DF00000780A2190FBF1F201FB120018B1604843
:102E000000780A287EDA012201A90220FFF769FF73
:102E10009DF8040000F00F00002873D09DF8040016
:102E200000F00F0006287EDA9DF8040000F00F0184
:102E3000FF208840C5B2E843C0B240F0C00051490D
:102E40000877002461E04F48007F0121A14008403D
:102E5000002856D04C4931F8140004226946FFF787
:102E600040FF4848407F00F00100E0B19DF80100BC
:102E70009DF8001001F00F0100EB012041491231D3
:102E800021F814009DF803009DF8021001F00F01D5
:102E900000EB01203D490988081A81B23948083001
:102EA00020F814101FE09DF801009DF8001001F0BB
:102EB0000F0100EB012035494988081A81B23148D9
:102EC000083020F814109DF803009DF8021001F05E
:102ED0000F0100EB01202D490988081A81B2294809
:102EE000123020F814109DF8000000F0F000802847
:102EF00007D000212348123020F814100A3820F897
:102F0000141000E00FE0601CC4B2052C9BDB01260E
:102F10001C48008920B91B48408A08B9002001904C
:102F20000020174908709DF8040000F01F00A8B9A0
:102F30001448007F00F0800030B11248007F20F07C
:102F400080001049087709E04FF6FF700D490881AD
:102F500048820846007F00F0E000087708480078C3
:102F6000F02802DD0A200649087030467CBD0000CA
:102F7000000802404354502049443A25780D0A0085
:102F80002C00002034000020E6A6010830000020BC
:102F900010B5FFF7D2FE08B1012010BD0020024994
:102FA000487700BFF9E70000340000200020FE4908
:102FB0000860091D0860091D0860091D0860FA49BC
:102FC00024310860091D0860091D0860F748F649AA
:102FD000383108600020091D086070470146002054
:102FE000012900D011B9F24B197000E0262070477A
:102FF0000146ED4A121D106820F0FF0008431060E2
:10300000704770B5044606E0E7483430056805F0BF
:10301000450000B100E0F7E700BF042003F01EFD0B
:1030200020B1042003F025FD032070BD012003F032
:1030300015FD20B1012003F01CFD0120F5E7DA4861
:1030400010300068A04201D01020EEE740F2FF509F
:1030500003F00FFDD4481430006808210840C0B2C6
:10306000E3E72DE9FC4107460D4600260024002039
:10307000009001900820CF4908601020486040204F
:1030800088600020C8604FF480600861084603F043
:1030900052FC1020FFF7B5FF044614B12046BDE8EE
:1030A000FC81C54800880004C24908603720486098
:1030B000402088600020C8604FF4806008610846A6
:1030C00003F039FC3720FFF79CFF04460CB1204683
:1030D000E5E74FF0FF30B94908600820486030202C
:1030E00088600220C860002008610120486108460D
:1030F00003F04DFC0020AF490860332048604020B9
:1031000088600020C8604FF480600861084603F0C2
:1031100012FC3320FFF775FF04460CB12046BEE7D2
:103120000DE04FF4001003F099FC40B19E48803050
:1031300000684DF82600761C022E00D307E09A485E
:103140003430006840F22A6108400028E9D000BF0E
:10315000082003F083FC20B1082003F08AFC04203F
:103160009DE7022003F07AFC20B1022003F081FCED
:10317000022094E7202003F071FC20B1202003F00E
:1031800078FC06208BE74FF4007003F067FC28B151
:103190004FF4007003F06DFC072080E740F2FF5011
:1031A00003F067FC00980006009901F47F4140EAB3
:1031B0000120009901F47F0140EA1120009940EAC2
:1031C0001160686001980006019901F47F4140EAAE
:1031D0000120019901F47F0140EA1120019940EAA0
:1031E0001160286020465AE77CB50546002400207F
:1031F0000090019000260DB1022600E000266A48EA
:103200001430006800F0007008B10E207CBD6A49DF
:10321000098888B26946FFF724FF04460CB12046AE
:10322000F4E7019800F4802060B36348008800044C
:103230006049086037204860402088600020C860EE
:103240004FF480600861084603F075FB3720FFF7F4
:10325000D8FE04460CB12046D8E756480660062042
:1032600054494860402088600020C8604FF4806066
:103270000861084603F05FFB0620FFF7C2FE044624
:103280002046C3E72520C1E770B5044600254C4819
:103290000078032802D12725284670BD48480078C9
:1032A00038B147480078012803D045480078022803
:1032B00019D1B4F5805F02D127252846EDE7E0B2A9
:1032C000FFF792FF054675B93748001D006820F4E6
:1032D000C0503549091D0860084600682043086051
:1032E0000846006808602846D7E710B5044631480C
:1032F000046007202F494860402088600020C86093
:103300004FF480600861084603F015FB0720FFF7C3
:1033100078FE10BDF0B5014600200022284B1B7836
:1033200081F85630244B1B88A1F85430254B1B687C
:103330001A0E93090B70C2F383034B7002F0030360
:103340008B70204B1B68C3F30742CA701D4B1B8850
:10335000C3F307220A711B4B1A784A715B681A0E75
:103360001301CB80174B5B68C3F30742CB8843EA5A
:103370001213CB8002F00F030B72124B9B88C3F326
:103380000722D3094B72C2F380138B72C2F340132E
:10339000CB72C2F300130B7300234B73084B1B78E3
:1033A000C3B1074B1B780FE0002C0140FF07C000A2
:1033B0005C000020B801002058000020CC01002053
:1033C00054000020E4010020012B03D0FE4B1B78A9
:1033D000032B4FD193071B0D0B61FC4B1A790B6923
:1033E00043EA82030B61F94B9B681A0E0B6943EAAF
:1033F00092130B61C2F3C2030B7502F007034B7506
:10340000F24B9B68C3F3074253098B75C2F38203E7
:10341000CB7593075B0F0B76EC4B1B89C3F307222D
:103420000B7E43EAD2130B760B695B1C0024C1E9C7
:1034300012340B7E9B1C012404FA03F3DC17D1E940
:103440001256A5FB037C06FB03C305FB0433C1E94D
:1034500012730C7A0123A3400B650024D1E9126595
:103460000B6DA6FB037C05FB03C306FB0433C1E91C
:1034700012732EE0D44B1B78022B2AD1D34B1A792E
:1034800093069B0A0B61D14B9B681A0E0B6943EAAA
:1034900002230B61CD4B9B68C3F307420B691343B7
:1034A0000B61CA4B1B89C3F307220B695B1C4FF4EA
:1034B0000074A3FB04464FF480630025A4FB037C47
:1034C00006FB03C304FB0533C1E912734FF4007319
:1034D0000B65C2F3801301F8193F93065B0E4B7026
:1034E000BA4B1A7A4B7843EAD2134B7002F07F033F
:1034F0008B70B64BDB681A0ED309CB70C2F3411345
:103500000B71C2F382034B7193071B0F8B71AF4B8F
:10351000DB68C3F307428B7943EA92138B71C2F3E2
:103520004013CB7100230B7202F001034B72A74BC7
:103530009B89C3F30722D3098B72C2F38013CB722A
:10354000C2F340130B73C2F300134B73C2F3810336
:103550008B7302F00303CB739C4B1A7B53080B74E1
:1035600001234B749A4B1B681A0ECA741939984B75
:103570001B68C3F307421402CC85954B1B88C3F329
:103580000722CB8D1343CB85914B1A7814060C631D
:103590005B681A0E0B6B43EA02440C638C4B5B684E
:1035A000C3F307420B6B43EA02240C63884B9B88EE
:1035B000C3F307220B6B13430B63854B1A79342338
:1035C0005A54834B9B681A0E35235A54804B9B6880
:1035D000C3F3074214068C637D4B1B89C3F3072298
:1035E0008B6B43EA02448C63794B1A7A8B6B43EA08
:1035F00002248C63764BDB681A0E8B6B13438B6350
:10360000734BDB68C3F307423C235B5C43EA121451
:103610003C235C5413071C0DCC876D4B9B89C3F373
:103620000722CB8F1343CB87694B1A7B5408402367
:103630005C54012441235C54F0BD70B500264FF466
:10364000803505E06348046804F0450000B103E0FC
:10365000281EA5F10105F5D100BF15B104F0040045
:1036600028B10326042003F004FA304670BD01207F
:1036700003F0F4F918B10126012003F0FAF940F241
:10368000FF5003F0F6F93046F0E72DE9F04105462A
:103690000E464FF0000805E04E48076807F0450069
:1036A00000B100E0F8E700BF042003F0D7F928B12B
:1036B000042003F0DEF90320BDE8F081012003F0CF
:1036C000CDF920B1012003F0D4F90120F4E74148FD
:1036D00024380068A84201D01020EDE740F2FF50E6
:1036E00003F0C7F93B482038046804F4604018B977
:1036F000200C30804046DFE704F4005008B113206E
:10370000DAE704F4804008B11020D5E704F4004063
:1037100008B10F20D0E74046CEE738B5002401209D
:10372000009003F002F910B92524204638BD264840
:103730000078042825D0002027490860022048602E
:10374000C02088600020C8604FF48060086108468F
:1037500003F0F1F8FFF771FF04460CB12046E5E7EE
:103760001C48203800681A4908601A481C3800684C
:10377000486018481838006888601648143800688F
:10378000C8601148007858B10F480078012807D068
:103790000D480078062803D00B480078022821D174
:1037A00000200D4908600320486040208860002008
:1037B000C8604FF480600861084603F0BCF86946B1
:1037C0000320FFF762FF09E054000020E40100201D
:1037D000F4010020342C0140B801002004460CB153
:1037E0002046A3E7FE480078032816D1BDF8000064
:1037F0000004FC49086003204860402088600020E5
:10380000C8604FF480600861084603F094F8FFF741
:1038100014FF04460CB1204688E7F14800780428DC
:103820002AD0BDF80000F0490860BDF8000000048F
:10383000EC49086009204860C02088600020C8600A
:103840004FF480600861084603F075F8FFF7F5FE55
:1038500004460CB1204669E7E4480068E449086082
:10386000E248001D00684860E04808300068886051
:10387000DE480C300068C860002057E710B506E04D
:10388000DA482030046804F0450000B100E0F7E7B2
:1038900000BF042003F0E2F820B1042003F0E9F8AF
:1038A000032010BD40F2FF5003F0E3F80020F8E7DA
:1038B00070B500264FF4803506E0CC48203004680F
:1038C00004F0450000B103E0281EA5F10105F4D184
:1038D00000BF15B104F0040028B10326042003F052
:1038E000C8F8304670BD04F0400018B100264020F2
:1038F00003F0BFF83046F5E770B500254FF480348B
:1039000004E0802003F0AAF800B103E0201EA4F137
:103910000104F6D100BF0CB9032070BD40F2FF5086
:1039200003F0A7F82846F8E72DE9F0470027002420
:1039300000260025A046A1467620AE490875002045
:10394000086048608860C8600861084602F0C9FFE6
:10395000032002F0E6FFA5481038006840F48070AC
:10396000A2491039086000BF12E000209D4908609C
:1039700048608860C8604FF480600861084602F0C3
:10398000DAFFFFF7B9FF044604B903E0781CC7B2B9
:103990004A2FEADB00BF14B12046BDE8F0874FF4A0
:1039A000D570904908600820486040208860002059
:1039B000C8604FF480600861084602F0BCFFFFF762
:1039C00077FF044624B90120854908704FF08049EB
:1039D000002084490860372048604020886000202B
:1039E000C8604FF480600861084602F0A4FF3720E9
:1039F000FFF707FB0446002C4BD134E00020794947
:103A0000086037204860402088600020C8604FF47C
:103A100080600861084602F08EFF3720FFF7F1FA58
:103A200004460CB12046B8E7734849EA00006D49E6
:103A3000086029204860402088600020C8604FF45A
:103A400080600861084602F076FFFFF717FF044622
:103A50000CB12046A1E765480668012080EAD670CF
:103A600080F001086D1CB8F1000F03D14FF6FF7014
:103A70008542C3D34FF6FF70854202D31B242046F4
:103A80008BE706F08040061E32D0022054490870B1
:103A90002EE01CE05948534908600120486040204E
:103AA00088600020C8604FF480600861084602F01A
:103AB00042FFFFF7E3FE04460CB120466DE74B489A
:103AC0000668012080EAD67080F001086D1CB8F10C
:103AD000000F03D14FF6FF708542DBD34FF6FF7026
:103AE000854202D31B24204657E703203C49087037
:103AF000204652E73EB5002400250121404802F04F
:103B000091FD0121C80202F0E7FD0121C80202F087
:103B100038FE4FF4F850019002208DF808008DF81F
:103B2000090000208DF80A0001208DF80B0001A982
:103B3000344802F0D9FA0420019001A9324802F079
:103B4000D3FA0C2208212F4802F059FB0C2209213C
:103B50002C4802F054FB0C220A212A4802F04FFBA9
:103B60000C220B21274802F04AFB0C221146254863
:103B700002F045FB0C220221234802F040FB002109
:103B80004FF4006002F0FDFDFFF710FA31208DF8D0
:103B9000000000208DF801008DF8020001208DF852
:103BA0000300684601F0F7FCFFF7BEFE044614B9B7
:103BB000FFF7B3FD04461CB91448FFF7ABFB0446FE
:103BC00034B91249B1F854100804FFF78EFB0446CB
:103BD00024B94FF40060FFF757FB0446E4B117E047
:103BE00054000020B801002058000020142C01408F
:103BF000E4010020A0010020000010800080FF8070
:103C00000C00400000080240000C024008020020A6
:103C1000FE480078032812D1FD4890F8560020B1E4
:103C2000FB4890F85600012801D1022500E000254C
:103C30002846FFF7DDF90020FFF7D0F904462046BB
:103C40003EBD10B5002002F06CFE002010BD70B526
:103C500090B004460E46154600BFEE4801F02FFE18
:103C60000028FAD1EB4801F001FD4FF0006001900F
:103C7000E9480290039404950020059006904FF4C3
:103C800080600790800008908000099000200A90D2
:103C90004FF440300B9004200C9003200D904FF413
:103CA00000000E9080100F9001A9DA4801F080FD0D
:103CB0002021D84801F0CCFD0121D64801F0B2FD09
:103CC00010B070BD0146002002E04910421CD0B285
:103CD0000129FAD170472DE9F84F814617469846D9
:103CE0000A9C4FF0000AD3464D464FF0FF36B9F11B
:103CF000000F02D12620BDE8F88F0020C6495439B4
:103D00000860C2480078022805D10402780A40EA17
:103D1000C8574FEA68280020C04988604860401EA4
:103D20000860012048610020C8600861084602F070
:103D30002EFEB9486C38006800F0007008B10E2003
:103D4000D9E7002C21DDB4F5006F1EDC601E204099
:103D5000D8B92046FFF7B6FF0090B14804601020A4
:103D6000AF494860402088600020C8604FF4806000
:103D70000861084602F0DFFD1020FFF742F9824695
:103D8000BAF1000F03D05046B5E72620B3E70098FC
:103D90000001A2498860084644604FF0FF30086087
:103DA000012048610220C86000200861084602F036
:103DB000EEFD9B48076011209949486040208860CB
:103DC0000020C8604FF480600861084602F0B3FD2F
:103DD0001120FFF716F98246BAF1000F01D05046C4
:103DE00089E79048007800285AD1FCF748FA17E094
:103DF0004FF4004002F032FE70B14FF0000B05E0CE
:103E00008548006845F82B000BF1010BBBF1080F4A
:103E1000F6D32035844E03E00EB904206BE7761EFE
:103E20007D484C38006840F22A6108400028DFD005
:103E3000082002F013FE20B1082002F01AFE042030
:103E400059E7022002F00AFE20B1022002F011FE22
:103E5000022050E7202002F001FE20B1202002F0D5
:103E600008FE062047E74FF4007002F0F7FD28B186
:103E70004FF4007002F0FDFD07203CE703E06648C8
:103E8000006828602D1D4FF4001002F0E7FD0028A7
:103E9000F5D1FCF7F6F940F2FF5002F0EAFD39E007
:103EA00060480078012835D10020604908706049D9
:103EB00008706049087058484438006840F22A3158
:103EC000084355494439086053485438006840F065
:103ED0000800514954390860002221464846FFF73E
:103EE000B6FE00E0761E4B485838006800F00060CF
:103EF00038B95048007820B94C48007808B9002EED
:103F0000F0D10EB90420F6E64848007810B14748D1
:103F100090F800A05046EEE62DE9FF5F1746984660
:103F2000DDE90E464FF00009CA464FF0FF35424921
:103F300000980860002038495439086033480078F8
:103F4000022805D10402780A40EAC8574FEA6828D7
:103F50000020324988604860401E086001204861A6
:103F60000020C8600861084602F011FD2A486C383C
:103F7000006800F0007018B10E2004B0BDE8F09F9A
:103F8000002C21DDB4F5006F1EDC601E2040D8B986
:103F90002046FFF797FE8346214804601020204901
:103FA0004860402088600020C8604FF4806008614D
:103FB000084602F0C0FC1020FFF723F88146B9F153
:103FC000000F03D04846D8E72620D6E7012E6ED949
:103FD00006FB04F0B0F1007F01D32620CDE74FEAC5
:103FE0000B100E49886006FB04F048604FF0FF306C
:103FF0000860012048610220C8600020086108466E
:1040000002F0C5FC06480760122017E054000020AB
:104010000802002058640240802C0140CC0100209E
:10402000B80100205C000020FFFF7F005E00002040
:104030005D0000205F00002060000020F94948601A
:10404000402088600020C8604FF480600861084606
:1040500002F071FC1220FEF7D4FF8146B9F1000F87
:1040600001D0484689E7F048007800287ED1FCF767
:1040700006F91EE04FF4004002F0F0FCA0B14FF052
:10408000000A07E0E9480068E949096841F82A00A0
:104090000AF1010ABAF1080FF4D3E54800682030AC
:1040A000E3490860E34D04E015B9042065E7AEE09C
:1040B0006D1EDE484C38006840F22A310840002866
:1040C000D8D0082002F0CAFC20B1082002F0D1FCB0
:1040D000042052E7022002F0C1FC20B1022002F0CD
:1040E000C8FC022049E7202002F0B8FC20B12020C3
:1040F00002F0BFFC062040E74FF4007002F0AEFC77
:1041000028B14FF4007002F0B4FC072035E709E055
:10411000C6480068C64909680860C5480068001DAF
:10412000C34908604FF4001002F098FC0028EFD15A
:104130004FF4807002F092FC20B3BF48007838B191
:10414000BD480078012803D0BB480078022819D167
:104150000020B44908600C2048604020886000209E
:10416000C8604FF480600861084600E011E002F08A
:10417000E2FB0C20FEF745FF8146B9F1000F01D0AC
:104180004846FAE6FCF77DF840F2FF5002F071FC79
:104190003DE0A5480078012839D10020A7490870E2
:1041A0000120A74908700020A64908709F4844389C
:1041B000006840F22A3108439C49443908609B4812
:1041C0005438006840F0080098495439086006FBEC
:1041D00004F100220098FFF73AFD00E06D1E9A48B6
:1041E000006800F0006008B9002DF7D10DB9042077
:1041F000C3E600BF9348007818B9904800780028BB
:10420000F8D08E48007810B18C4890F8009048465D
:10421000B3E61CB504460020019000908B4800884E
:104220000004804908600D2048604020886000201C
:10423000C8604FF480600861084602F07CFB7B4850
:104240004C380068009003E078484C3800680090D3
:10425000009800F045000028F6D0012002F0FEFB97
:1042600020B1012002F005FC01201CBD042002F059
:10427000F5FB20B1042002F0FCFB0320F5E76B48BE
:10428000703800680D2801D01020EEE740F2FF5092
:1042900002F0EFFB65486C38006801900198C0F3AC
:1042A000432020700020E0E72DE9FF5F86B017462D
:1042B0009846149D00260020059004900024814615
:1042C0000390824602900195DDF818B0DDF818B031
:1042D000BBF1000F03D126200AB0BDE8F09F0020FB
:1042E0005249543908605A4988604860401E086045
:1042F000012048610020C8600861084602F047FBC1
:104300004A486C38006800F0007008B10E20E3E7FE
:1043100049480078022805D10502780A40EAC857C2
:104320004FEA6828002D1FDDB5F5006F1CDC681E04
:104330002840C8B92846FFF7C5FC059039480560F4
:10434000102038494860402088600020C8604FF441
:1043500080600861084602F0EEFA1020FEF751FE78
:1043600006461EB13046B7E72620B5E73748008835
:1043700000042C4908600D2048604020886000201F
:10438000C8604FF480600861084602F0D4FA0D203E
:10439000FEF737FE06460EB130469DE723486C38DF
:1043A000006803904FF0FF341CE0641E274800882B
:1043B00000041C4908600D204860402088600020EF
:1043C000C8604FF480600861084602F0B4FA0D201E
:1043D000FEF717FE06460EB130467DE713486C38EF
:1043E00000680390039800F4807008B9002CDCD1B9
:1043F0000CB9292070E70B4807601820094948606C
:10440000402088600020C8604FF480600861084642
:1044100002F091FA1820FEF7F4FD0646D6B13046B8
:104420005AE70000B80100205C000020802C014009
:1044300060000020FFFF7F00540000205E0000208D
:104440005D0000205F000020006402405800002052
:10445000CC0100200020F849087005980001F749B8
:104460008860084645604FF0FF30086001204861D1
:104470000020C8600861084602F089FA4FF0FF3456
:10448000EF48007800287CD1FBF7F9FE43E04FF4B9
:10449000804002F0E3FAC8B30198A0EB090020289D
:1044A00021D20198A0EB090000F0030020B9019887
:1044B000A0EB0900800804E00198A0EB0900800847
:1044C000401C02904FF0000A09E0DE49DBF80000D2
:1044D00008600AF1010A0BF1040B09F104090298C2
:1044E0008245F2D30FE04FF0000A05E05BF82A00A6
:1044F000D44908600AF1010ABAF1080FF6D30BF1AA
:10450000200B09F120096FF0404404E0FFE70CB9EB
:104510000420E1E6641ECB484C38006840F21A6182
:1045200008400028B3D0082002F098FA20B10820F3
:1045300002F09FFA0420CFE6022002F08FFA20B1A9
:10454000022002F096FA0220C6E6102002F086FA57
:1045500020B1102002F08DFA0520BDE64FF4007066
:1045600002F07CFA30B14FF4007002F082FA0720BA
:10457000B2E606E0FBF785FE40F2FF5002F079FA62
:1045800043E0AF48007801283FD10020AE490870D1
:10459000A9490870AD490870AA484438006840F23B
:1045A0001A310843A7494439086040222946069831
:1045B000FFF74DFBA3485438006840F00800A149BC
:1045C0005439086000E0641EA148006800F00060F3
:1045D00008B9002CF7D11CB9FFF78CFA04207BE650
:1045E0004FF0FF3400E0641E9848007820B99648E8
:1045F000007808B9002CF6D10CB904206CE692487A
:10460000007810B19048007866E640F2FF5002F062
:1046100030FA04A8FFF7FDFD064603E004A8FFF703
:10462000F8FD06463EB99DF810000728F6D09DF823
:1046300010000628F2D030464EE62DE9FF5F84B028
:10464000DDE91247002600200390029000258046F5
:104650008146019007FB04FBDDF810A0DDF810A0F7
:10466000BAF1000F03D1262008B0BDE8F09F00206A
:10467000744954390860714988604860401E086078
:10468000012048610020C8600861084602F07FF9F7
:104690006C486C38006800F0007008B10E20E3E749
:1046A0006C480078022808D10402DDE90601400ABE
:1046B00040EAC1504912CDE90601002C1FDDB4F5D6
:1046C000006F1CDC601E2040C8B92046FFF7FAFAD4
:1046D00003906148046010205F4948604020886072
:1046E0000020C8604FF480600861084602F023F99A
:1046F0001020FEF786FC06461EB13046B4E72620A1
:10470000B2E7012F6FD907FB04F0B0F1007F01D3AE
:104710002620A9E74F48007838B14E480078012894
:1047200003D04C48007802282DD14C480088000462
:104730004949086037204860402088600020C860F0
:104740004FF480600861084602F0F5F83720FEF764
:1047500058FC06460EB1304686E73F4807601720F2
:104760003D494860402088600020C8604FF4806068
:104770000861084602F0DFF81720FEF742FC064603
:104780000EB1304670E73449069808601920486039
:10479000402088600020C8604FF4806008610846AF
:1047A00002F0C9F81920FEF72CFC06460EB130467F
:1047B0005AE7039800012149886007FB04F048602C
:1047C0004FF0FF300860012048610020C860086198
:1047D000084602F0DCF81A480078002872D1451E1D
:1047E000FBF74DFD54E0F8E04FF4804002F036F95D
:1047F000B0B3ABEB0800202833D2ABEB080000F0DD
:10480000030018B9ABEB0800800803E0ABEB08002D
:104810008008401C01904FF0000909E00949DAF8CE
:104820000000086009F101090AF1040A08F104080E
:1048300001988145F2D324E05D000020CC010020E6
:104840005C000020802C01405E0000205F00002002
:104850000064024054000020B801002058000020ED
:1048600012E04FF0000905E05AF82900F749086006
:1048700009F10109B9F1080FF6D30AF1200A08F18C
:1048800020086FF0404503E00DB90420ECE66D1EF2
:10489000EE484C38006840F21A3108400028A3D096
:1048A000082002F0DBF820B1082002F0E2F8042032
:1048B000DAE6022002F0D2F828B1022002F0D9F89C
:1048C0000220D1E640E0102002F0C8F820B110200C
:1048D00002F0CFF80520C7E64FF4007002F0BEF8F2
:1048E00028B14FF4007002F0C4F80720BCE64FF482
:1048F000807002F0B3F800B3D548007838B1D448DE
:104900000078012803D0D2480078022815D1002071
:10491000D04908600C204860402088600020C860B2
:104920004FF480600861084602F005F80C20FEF79D
:1049300068FB06460EB1304696E6FBF7A2FC40F255
:10494000FF5002F096F848E0C3480078012844D1AF
:104950000020C24908700120C14908700020C149E7
:104960000870BA484438006840F21A310843B74921
:104970004439086007FB04F140220498FFF767F907
:10498000B2485438006840F00800B0495439086013
:104990004FF0FF3500E06D1EB348006800F0006086
:1049A00008B9002DF7D11DB9FFF7A4F804205BE684
:1049B0004FF0FF3500E06D1EAA48007820B9A748E7
:1049C000007808B9002DF6D10DB904204CE6A348B3
:1049D000007810B1A148007846E640F2FF5002F09E
:1049E00048F802A8FFF715FC064603E002A8FFF707
:1049F00010FC06463EB99DF808000728F6D09DF841
:104A000008000628F2D030462EE610B54FF480702C
:104A100002F024F888B392480078012814D10020CD
:104A20008C4908600C204860402088600020C860E5
:104A30004FF480600861084601F07DFF0C20FEF70E
:104A4000E0FA8649087002E00020844908707F4837
:104A50004838006840F480707C4948390860081D77
:104A600000684CF23A3188437849443908600120A3
:104A70007C4908707948007810BDFFE7022001F0FA
:104A8000EDFF78B1022001F0F4FF7048443800686F
:104A90004CF23A3188436D494439086002206F492D
:104AA0000870E9E7082001F0D9FF78B1082001F08B
:104AB000E0FF6648443800684CF23A318843634965
:104AC00044390860042065490870D5E7202001F0CA
:104AD000C5FF78B1202001F0CCFF5C484438006865
:104AE0004CF23A31884359494439086006205B4901
:104AF0000870C1E7102001F0B1FF78B1102001F07B
:104B0000B8FF5248443800684CF23A3188434F4964
:104B100044390860052051490870ADE74FF4007032
:104B200001F09CFF80B14FF4007001F0A2FF4748F4
:104B3000443800684CF23A318843444944390860AB
:104B400007204649087097E7002095E710B5FFF762
:104B50005CFF10BD70B50446002514B92625284613
:104B600070BD4248008800043A4908600D20486042
:104B7000402088600020C8604FF4806008610846CB
:104B800001F0D9FE0D20FEF73CFA05460DB128468E
:104B9000E6E72E486C38006820602846E0E708B554
:104BA000002000906846FFF7D5FF08B1FF2008BD40
:104BB0000098C0F34320FAE72DE9FE4F83460C46E8
:104BC000914600200290002625462C46700240EABD
:104BD000D5566D020BF00300F0B14FF0000A18E05B
:104BE0004FF4007000904FEA4A20471946EBE073FB
:104BF0003A461F48FFF76FF802904FF400721C49C5
:104C0000584613F03BFF0BF5007B0AF1010000F062
:104C1000FF0ACA45E4DB16E0B9F1010F09D14FF4F0
:104C200000702A46334600905846FFF754F8029029
:104C300009E04FF400702A463346CDE90009584692
:104C4000FFF76AF902900298BDE8FE8F802C0140C0
:104C500054000020B80100205C0000205E0000200D
:104C60005D0000205F00002000640240580000202A
:104C7000600200202DE9FE4F81460C46924600203E
:104C80000290002625462C46700240EAD5566D0259
:104C900009F00300F0B14FF0000B18E04FF4007280
:104CA0004946194813F0EAFE4FF4007000904FEAAD
:104CB0004B20471946EBE0733A461348FFF7F4FAE6
:104CC000029009F500790BF1010000F0FF0BD345CC
:104CD000E4DB16E0BAF1010F09D14FF400702A4667
:104CE000334600904846FFF7DFFA029009E04FF4A0
:104CF00000702A463346CDE9000A4846FFF79DFC7E
:104D000002900298BDE8FE8F6002002010B50446B4
:104D100000BF0221424802F0D7F80028F9D021460E
:104D20003F4802F088F800BF01213D4802F0CCF86E
:104D30000028F9D03A4802F07BF8C0B210BD10B597
:104D40000446374800884FF6C77108403449088048
:104D500008460088204308800121314801F0EAFF1D
:104D600010BD00B587B00121022001F05BFC0121DC
:104D7000080301F0B1FC3820059002208DF81800DE
:104D800000208DF81A0003208DF8190001208DF8FD
:104D90001B0005A9234801F0A7F90522032121489A
:104DA00001F02DFA052204211E4801F028FA0522FF
:104DB00011461C4801F023FA0121080301F0E1FC2F
:104DC00000214FF4805001F0DCFC0020ADF8000021
:104DD0004FF48270ADF802000020ADF80400ADF889
:104DE0000600ADF808004FF40070ADF80A00382056
:104DF000ADF80C000020ADF80E000720ADF8100053
:104E00006946074801F09CFE0121054801F092FF28
:104E10001820FFF794FFFF20FFF778FF07B000BDD1
:104E2000003001400004024010B500240020CC49AD
:104E300008609020FFF76AFF0020FFF767FF00205F
:104E4000FFF764FF0020FFF761FFFF20FFF75EFF21
:104E500044EA0024FF20FFF759FF04430120C14921
:104E6000C1F8BC02204610BD1CB50121084601F066
:104E7000D9FB4FF40040009001208DF80400002081
:104E80008DF8060003208DF8050001208DF807003D
:104E90006946B54801F028F90120B1490860FFF7DB
:104EA000C3FFB24908801CBD10B500240020AC49E6
:104EB00008600520FFF72AFFFF20FFF727FF0446C1
:104EC0000120A849C1F8BC02204610BD10B5044617
:104ED0000020A34908600120FFF718FF2046FFF7D4
:104EE00015FF01209F49C1F8BC0210BD10B500207C
:104EF0009B4908600620FFF709FF01209949C1F886
:104F0000BC0210BD10B50020954908600420FFF7D1
:104F1000FDFE01209349C1F8BC0210BD2DE9F0410E
:104F200006460C46174600208D4908600320FFF70F
:104F3000EDFEC4F30740FFF7E9FEC4F30720FFF7D7
:104F4000E5FEE0B2FFF7E2FE002505E0FF20FFF7F7
:104F5000DDFE7055681C85B2BD42F7DB012080493B
:104F60000860BDE8F08110B500BFFFF79DFF00F0BD
:104F700001000028F9D110BD2DE9F04106460C468C
:104F80001746FFF7B3FF0020754908600220FFF7BE
:104F9000BDFEC4F30740FFF7B9FEC4F30720FFF7D7
:104FA000B5FEE0B2FFF7B2FE002504E0705DFFF74A
:104FB000ADFE681C85B2BD42F8DB0120684908607F
:104FC000FFF7D1FFBDE8F0812DE9F04107460E461D
:104FD0001446F0B2C0F58075AC4200DC254612E004
:104FE0002A4631463846FFF7C7FFAC4200D10BE0F6
:104FF0002F442E44601B84B2B4F5807F02DD4FF451
:10500000807500E02546EBE700BFBDE8F08110B5F4
:1050100004462403FFF76AFFFFF7A5FF002050496D
:1050200008602020FFF772FEC4F30740FFF76EFE12
:10503000C4F30720FFF76AFEE0B2FFF767FE012026
:105040004849C1F8BC02FFF78EFF10BD2DE9F05FA3
:1050500081460F461646DFF818B14FEA1738C7F3F6
:105060000B0ACAF58054A64200DC344644E04FEAFD
:1050700008314FF480525846FFF750FF002508E0F2
:105080000AEB05001BF80000FF2800D003E0681CB5
:1050900085B2A542F4DB00BFA54216DA4046FFF711
:1050A000B6FF002507E019F8050005EB0A010BF82B
:1050B0000100681C85B2A542F5DB4FEA08314FF4C8
:1050C00080525846FFF780FF04E0224639464846A2
:1050D000FFF77AFFA64200D10FE008F101084FF078
:1050E000000AA1442744301B86B2B6F5805F02DD7A
:1050F0004FF4805400E03446B9E700BFBDE8F09FAC
:1051000010B5FFF7F3FEFFF72EFF002014490860EB
:10511000C720FFF7FBFD01201249C1F8BC02FFF7D1
:1051200022FF10BD10B500200D490860B920FFF71F
:10513000EDFD01200B49C1F8BC02032003F0F4FE91
:1051400010BD10B5002006490860AB20FFF7DEFD5A
:1051500001200449C1F8BC02032003F0E5FE10BDA4
:10516000BC024042000040420000024064000020B7
:105170006004002010B5B0B001214FF0606001F074
:1051800051FA02F0A5FF03F020FD00BF03F024FD5B
:105190000128FBD001A802F0A6FF01200190002009
:1051A00008904FF400700B9000200C900F9012901C
:1051B0001490159016904FF480600A900020219072
:1051C0004FF000702290001124900020269027902C
:1051D00004202990C0052A9040122B9080012C9029
:1051E00040122D9040002F90002101A803F035F8C7
:1051F000C4B2012C03D10121B64803F004FD2046BE
:1052000030B010BD08B53D208DF8000000208DF8AD
:1052100001008DF8020001208DF80300684600F0BF
:10522000BAF908BD1CB500240121072001F0FAF9E4
:105230000121880301F050FA012001F0A7FE862029
:10524000009003208DF8050002208DF80400002056
:105250008DF806008DF8070069469F4800F044FF6E
:105260000B2201219C4800F0CAFF0B2202219A4820
:1052700000F0C5FF0B220721974800F0C0FF322045
:1052800000906946954800F02FFF0B2201219348BA
:1052900000F0B5FF0B220421904800F0B0FF0B2274
:1052A00005218E4800F0ABFF4FF460500090694636
:1052B0008B4800F019FF0B221146894800F09FFF30
:1052C0000B220C21864800F09AFF0B220D21844806
:1052D00000F095FF0820009003208DF805000120C4
:1052E0008DF8040000208DF806008DF8070069464F
:1052F000794800F0F9FE00207A490860322003F076
:105300005BFE01207849C1F88C02FFF77BFFFFF7B5
:1053100031FF04460CB901201CBD0020FCE710B58C
:105320001F21002002F068FFC0F38204204610BD58
:1053300010B501E007F08EFF6C48006803F021FC17
:105340000028F7D1402003F075FC4FF4803003F0C3
:1053500071FC10BD1EB50021002200920192029244
:10536000624A1268126802F0004282B10022009282
:105370005F4A526902F0800222B180225C4B5A617E
:1053800000229A609DE81C0080E81C001EBD574A60
:105390001268126802F40042B2B9544A12681268E4
:1053A00002F4807282B1514A1268126802F40072EB
:1053B00052B14E4A12681268C2F30D42111F4B4A95
:1053C00012689268019200E000210091474A126839
:1053D0000292464A1268D268444B1A609DE81C004B
:1053E00080E81C0000BFD1E7014642480068006821
:1053F00000F0004008B100207047C1F30C003D4AA6
:10540000126850603B480068006840F04050394ADC
:105410001268106037480068006840F00040354A64
:10542000126810603248406900F0040020B1042086
:105430002F4A5061002050602E480068C0682D4AF5
:1054400010600120D8E72B4800688068704710B5CD
:1054500029480168002013F0F2F82848016800206C
:1054600013F0EDF826480168002013F0E8F825480D
:105470000168002013F0E3F810BD10B5A021002052
:1054800013F0EDF81C490860A021002013F0E7F8A4
:105490001A49086041F6C451002013F0E0F8184999
:1054A000086041F6C451002013F0D9F8154908608E
:1054B0001148006840B11148006828B110480068E0
:1054C00010B10846006818B9FFF7C1FF012010BDF0
:1054D0000020FCE7400001000000024000080240FC
:1054E000000402408C024042000040428C00002038
:1054F0000090024088000020680000206C0000201E
:1055000070000020740000207FB504460D46012184
:10551000022001F0D0F8ADF804500020ADF80600EC
:105520000294ADF80C0001A9164801F0F4FD012227
:105530001146144802F090FA0121124801F074FE5D
:105540001D208DF8000001208DF8010003208DF84A
:10555000020001208DF80300684600F01CF87FBDB2
:1055600010B50121074802F08EFA012804D106483F
:1055700000680A30044908600121024802F094FAE8
:1055800010BD000000040040C40000203249014367
:10559000324A1160704770B5002100230F22C47891
:1055A0001CB32E4C246804F4E064C4F5E064C4F336
:1055B0000721C1F10404E3B20A4144789C40E1B2FE
:1055C0008478144021430C07210E254C0578615541
:1055D000047804F01F050124AC4005786D11AD007E
:1055E00005F1E025C5F8004109E0047804F01F0545
:1055F0000124AC401B4D0678761145F8264070BD5D
:10560000194A0A400243154B1B1F1A60704739B1F3
:10561000124A121D12680243104B1B1D1A6006E04D
:105620000E4A121D126882430C4B1B1D1A607047F4
:10563000042808D14FF0E021096941F004014FF03E
:10564000E022116107E04FF0E021096921F0040137
:105650004FF0E022116170470000FA050CED00E008
:1056600000E400E080E100E080FFFF1F016821F01E
:10567000010101600021016041608160C160016140
:1056800021214161DB49884204D13D21D94A103AA8
:1056900091608CE0D7491831884205D14FF474618C
:1056A000D44A103A916082E0D2493031884205D123
:1056B0004FF47411CF4A103A916078E0CD494831E7
:1056C000884205D14FF07461CA4A103A91606EE089
:1056D000C8496031884204D1C749C64A103AD160EE
:1056E00065E0C4497831884204D1C449C14A103ABE
:1056F000D1605CE0BF499031884204D1C049BD4AC5
:10570000103AD16053E0BB49A831884205D14FF02F
:105710003D51B84A103AD16049E0BA49884204D1B3
:105720003D21B84A083A116041E0B6491831884233
:1057300005D14FF47461B34A083A116037E0B149BA
:105740003031884205D14FF47411AE4A083A1160E5
:105750002DE0AC494831884205D14FF07461A94A27
:10576000083A116023E0A7496031884204D1A24978
:10577000A44A121F11601AE0A2497831884204D16C
:105780009E49A04A121F116011E09E499031884243
:1057900004D19B499B4A121F116008E09949A83126
:1057A000884204D14FF03D51964A121F1160704754
:1057B00010B500220268944B1A40CC680B68234352
:1057C0004C6923438C692343CC6923430C6A2343EC
:1057D0004C6A23438C6A23434C6B23438C6B2343D7
:1057E0001A430260426922F00702D1E90B342343D5
:1057F0001A4342610B6943604B6883608B68C360E6
:1058000010BD0021016041608160C16001614161A2
:105810008161C161016241628162C1620163416370
:105820008163704721B1026842F00102026003E027
:10583000026822F001020260704721B1026842F45E
:105840000042026003E0026822F4004202607047F6
:1058500021B1026842F02002026003E0026822F0F7
:10586000200202607047416070470146486880B27C
:10587000704722B1036843F40023036003E0036828
:1058800023F4002303600161704721B1026842F4F0
:105890008022026003E0026822F4802202607047E6
:1058A0000AB1016100E0C1607047014600200A684A
:1058B00002F400220AB1012000E0002070470146F6
:1058C00000200A6802F001020AB1012000E0002075
:1058D0007047014600204A6902F03800704730B531
:1058E00003460A4600200024464DAB4202D24149FD
:1058F000103901E04349103902F000550DB14C68F0
:1059000000E00C68414D2C4004EA02050DB1012075
:1059100000E0002030BD02463A4B9A4202D23548A0
:10592000103801E03748103801F000531BB1374BF5
:105930000B40C36002E0354B0B408360704710B5ED
:1059400001F080034BB122B1436943F0800343610E
:1059500003E0436923F08003436180290BD02AB11F
:10596000036801F01E042343036004E0036801F0B0
:105970001E04A343036010BD70B50246002000243E
:105980000025204EB24202D21A4B103B01E01D4BC3
:10599000103B1F4E0E4036B11E2606EAD124166873
:1059A00006EA040502E0566906F0800501F000569B
:1059B0000EB15C6800E01C68144E344004EA010635
:1059C00016B10DB1012000E0002070BD02460D4B64
:1059D0009A4202D20748103801E00A48103801F014
:1059E00000531BB1094B0B40C36002E0074B0B4057
:1059F00083607047106002403D000020400F00208F
:105A000000003D20106402403F801CF07D0F7D0FA0
:105A10003C0F3C0F30B943F2DB028100A1F1C041E1
:105A20000A6005E043F2D2028100A1F1C0410A60A0
:105A30006FF07042411C8900A1F1C0410A608100F1
:105A4000A1F1C041C1F804217047D0E9011211430E
:105A5000C2681143026911434269114382691143CB
:105A6000C2691143026A1143426A1143826A1143B7
:105A7000C26A1143026B114302689200A2F1C04254
:105A80001160816808290BD101688900A1F1C0412A
:105A9000096841F0400201688900A1F1C0410A6033
:105AA000416B0968426B526841EA0211426B92688D
:105AB00041EA0221426B928941EA0241426B128A19
:105AC00041EA0251426B127D41EA0261426B9269E6
:105AD00011430268521C9200A2F1C0421160C16AD7
