:020000040800F2
:10000000B80D00209D0100085B210008251500089F
:1000100059210008030B0008753400080000000097
:10002000000000000000000000000000A523000800
:10003000D90D000800000000C52100087D2400083B
:10004000B7010008B7010008B7010008B7010008B0
:10005000B7010008B7010008B7010008B7010008A0
:10006000B7010008B7010008B7010008B701000890
:10007000B7010008B7010008B7010008B701000880
:10008000B7010008B7010008B7010008B701000870
:10009000B7010008B7010008B7010008B701000860
:1000A000B7010008B7010008B7010008B701000850
:1000B000DD24000891250008D1250008B7010008BB
:1000C000B7010008B7010008B7010008B701000830
:1000D00001230008E1310008B70100084932000897
:1000E000B7010008B7010008B7010008B701000810
:1000F000B7010008B7010008B7010008B701000800
:10010000B7010008B7010008B7010008B7010008EF
:100110008D310008B7010008B7010008B7010008D9
:10012000B7010008B7010008B7010008B7010008CF
:10013000B7010008B7010008B7010008B7010008BF
:10014000B7010008B7010008B7010008B7010008AF
:10015000B7010008B7010008B7010008E532000840
:10016000B7010008B7010008B7010008B70100088F
:10017000B7010008B7010008B7010008B70100087F
:10018000B7010008B7010008DFF80CD000F08CFBC5
:1001900000480047E14C0008B80D002006488047A1
:1001A00006480047FEE7FEE7FEE7FEE7FEE7FEE75C
:1001B000FEE7FEE7FEE7FEE781240008890100086C
:1001C00030B505462A460B4612F8010B13F8014BD1
:1001D00008B1A042F8D01CB1002802D06D1CF1E794
:1001E000284630BD2DE9FE4F81EA030404F00044A7
:1001F00021F0004100944FF0000B23F0004350EA3F
:1002000001045ED052EA03045BD0C3F30A54C1F385
:100210000A552C44A4F2F3340194A0FB0254C1F318
:10022000130141F48011C3F3130343F4801301FB62
:10023000024400FB034E840A970A44EA815447EAC9
:100240008357A4FB076802958D0A05FB07854FEAD3
:10025000932C04FB0C542705029D4FEA065847EAED
:100260001637B5EB08056EEB070C870E920E47EAC2
:10027000811742EA8312A7FB0201B6EB0B0164EB84
:1002800000042B0D43EA0C335E1844EB1C50DA4695
:100290005146E7FB0201C5F313044FEA0B3343EA6F
:1002A00014534FEA0432019C43EA0603A4F10C0400
:1002B0000294009CCDE900B400F097F903B0BDE8CA
:1002C000F08F00200146F9E72DE9F04D81EA0304A3
:1002D00004F0004B21F0004514464FF0000A23F0D3
:1002E000004150EA050220D054EA01021DD0C5F3B6
:1002F0000A570246C5F31303C1F31300C1F30A56AC
:1003000040F4801543F48013A7EB0608101BD64673
:1003100008F2FD3873EB050002D308F1010801E093
:1003200092185B41B8F1000F03DA00200146BDE8E6
:10033000F08D00204FF48011064684460EE0171B16
:1003400073EB050705D3121B63EB050306434CEA69
:10035000010C49084FEA300092185B4150EA01074E
:10036000EDD152EA030012D082EA040083EA0501CB
:10037000084305D0101BAB4106D20122002306E042
:1003800000224FF0004302E06FF0010253101AEB1D
:1003900006004CEB085110EB0A0041EB0B01BDE8E5
:1003A000F04D00F013B90EB540F233410291002137
:1003B000CDE900110A460B4600F017F903B000BD65
:1003C000C1F30A5210B5C1F3130140F2FF3341F4F7
:1003D00080119A4201DA002010BD40F233439A4264
:1003E000A2F2334203DC524200F0A9F810BD904063
:1003F00010BD00F0004230F000400AD0C10D01F500
:100400006071C0F3160042EA0151C208400711436F
:10041000704700200146704730B5041E71F100049A
:1004200004DB4FF00044404264EB0101141E73F101
:10043000000405DB1C464FF00043524263EB04030B
:100440008B4208BF824230BD30B5041E71F10004FA
:1004500004DB4FF00044404264EB0101141E73F1D1
:10046000000405DB1C464FF00043524263EB0403DB
:10047000994208BF904230BD01F0004330B421F0F2
:10048000004150EA010206D00A0DA2F56072C1F3E4
:100490001301002A02DC30BC00207047440F44EAFC
:1004A000C104C100E01830BC00EBC25000F057B8E6
:1004B00030B50B46014600202022012409E021FA34
:1004C00002F59D4205D303FA02F5491B04FA02F531
:1004D0002844151EA2F10102F1DC30BD2DE9F05FC8
:1004E0000546002092469B468846064681464024A3
:1004F0001BE0284641464746224600F020F8534676
:100500005A46C01A914110D311461846224600F0AF
:10051000DDF92D1A67EB01084F4622460120002124
:1005200000F0D4F917EB00094E41201EA4F101049C
:10053000DFDC484631462A464346BDE8F09F202A84
:1005400004DB203A21FA02F00021704721FA02F37D
:10055000D040C2F12002914008431946704700295B
:10056000A8BF7047401C490008BF20F00100704739
:1005700010B4B0FA80FC00FA0CF050EA010404BF99
:1005800010BC704749B1CCF1200421FA04F411FAEF
:100590000CF118BF012121430843A3EB0C01CB1D33
:1005A0004FEA00614FEA102042BF002010BC7047A4
:1005B00000EBC35010440029A4BF10BC7047401C7E
:1005C000490008BF20F0010010BC704710B5141E90
:1005D00073F1000408DA401C41F1000192185B41FC
:1005E0001A4301D120F0010010BD2DE9F04D9246D3
:1005F0009B4611B1B1FA81F202E0B0FA80F22032EA
:10060000904600F063F904460F4640EA0A0041EACA
:100610000B0153465A46084313D0114653EA0100D2
:1006200019D0C8F140025046FFF789FF05460E4633
:1006300050465946424600F049F9084305D001208A
:1006400004E020463946BDE8F08D0020054346EA27
:10065000E0762C4337430A986305E40AA0EB0800D0
:100660000022FD0A44EA47540A3002D50020014620
:10067000E9E7010510196941DDE9084500196941FB
:10068000BDE8F04DA2E72DE9FE4F804681EA030068
:10069000C00F0C46009021F0004123F00045B8EB5C
:1006A0000200A94105D24046214690461C460B4611
:1006B000024623F00040104347D0270DC7F30A003D
:1006C000C3F30A510290401A019040286BDAC3F339
:1006D000130040F4801B0098924620B10023D2EB17
:1006E000030A63EB0B0B01985946C0F140025046D8
:1006F00000F0ECF806460D4650465946019A00F0C7
:10070000F4F810EB08006141002487EA115284EAF2
:10071000E7731A4340D0009A62B3019A012A4FEA64
:10072000075215DC001B61EB02014FF0004202EAA8
:100730000752CDE90042001C41F5801132462B469C
:10074000FFF753FF03B0BDE8F08F40462146F9E7BD
:10075000001B61EB0201001C41F5801300185B4196
:100760002018A2F5001747EB030140EAD570B6192F
:100770006D4111E06D084FEA360645EAC0754FEA53
:100780000752001B61EB0201001C41F58011490872
:100790004FEA30000019514132462B4603B0BDE804
:1007A000F04FFFF713BF0098012240000023D0EB69
:1007B000020263EBE073009821464FEAE074B8EB65
:1007C000000061EB0401E9E783F000435BE781F09F
:1007D000004158E72DE9F04D00231A461B1A8A41C3
:1007E00003DB00200146BDE8F08DC1F30A52C1F3DE
:1007F000130141F480154FF0000BD10702D100180E
:100800006D41521E0027044640F2FF11384601EBAD
:10081000620A3E468046024600204FF48011FFF7F0
:100820008EFEC2197141BB1846EB0100B4EB030CFC
:1008300075EB000C04D3E41A65EB000517460E4671
:10084000241908F101006D4180463428E3DDF919CF
:1008500046EB0600091BA84103D24FF0FF321346B6
:1008600001E0002213461BEB070046EB0A51BDE8EE
:10087000F04DFFF7ABBEC1F30A52C1F3130140F2D2
:10088000FF3341F480119A4202DA0020014670479A
:1008900040F233439A42A2F2334202DC5242FFF763
:1008A0004EBE00F013B80000064C074D06E0E068AD
:1008B00040F0010394E8070098471034AC42F6D3A7
:1008C000FFF766FC88710008A8710008202A04DB85
:1008D000203A00FA02F1002070479140C2F1200353
:1008E00020FA03F3194390407047202A06DBCB1708
:1008F000203A41FA02F043EAE07306E041FA02F3DB
:10090000D040C2F12002914008431946704710B50B
:1009100000F030FC01F00AFC4FF4807000F01CF88D
:10092000012010BD70B50E46C2F38D3140EA0104BE
:10093000C2F30D0505434FF4005000F00DF82846B2
:1009400000F00AF8204600F007F846F40050BDE831
:10095000704000F001B8000070B506460A4D4FF433
:1009600080542146284600F06BFC0A2003F0D6FE96
:10097000304601F0E9FC2146284600F063FCBDE862
:1009800070400A2003F0CABE0004024010B504F013
:1009900025F80246BDE8104000214FF48040FFF7E3
:1009A000C1BF002904D0816841F001018160704716
:1009B000816821F0010181607047000010B5074C8B
:1009C000226807490A40D0E900131943D0E90230F0
:1009D000034319431143216010BD0000042301406B
:1009E000E030FCFF002904D0816841F4807181600F
:1009F0007047816821F4807181607047C06C80B25B
:100A000070470246002012680A4200D00120704759
:100A100030B542680F4B1A400C790B6842EA042249
:100A20001343436083680C4A1340D1E903422243D5
:100A30004D798C6844EA450422431A438260C26AB5
:100A400022F47002097D491EC9B242EA0151C16215
:100A500030BD0000FFFEFFFCFDF7FFC00849002885
:100A600006D0D1F8040340F40050C1F804037047E5
:100A7000D1F8040320F40050C1F8040370470000CB
:100A80000020014070B5072609290AD9C568A1F1DF
:100A90000A0404EB4404A640B543A3401D43C560CB
:100AA00007E0056901EB4104A640B543A3401D439F
:100AB00005611F23072A09D2446B521E02EB8202F2
:100AC00093409C4391400C43446370BD0D2A09D26E
:100AD000046BD21F02EB820293409C4391400C4373
:100AE000046370BDC46A0D3A02EB820293409C43DA
:100AF00091400C43C46270BD816841F080418160C7
:100B00007047FEE7022003F009BE000070B50B4CF1
:100B1000002565600A48016821F0C0010160016894
:100B200041F040010160FFF7EDFF2560FFF7EAFFAC
:100B300001206060FFF7E6FF656070BD8C024142F6
:100B4000000802401CB50121042001F03DFB1820E3
:100B5000009001208DF8040000218DF806108DF81A
:100B600007006946014800F01DFB1CBD000802405B
:100B700070B50B4C002565600A48016821F0C00182
:100B80000160016841F040010160FFF7BBFF0126F1
:100B90002660FFF7B7FF6660FFF7B4FF656070BDC2
:100BA0008C024142000802402DE9F04781460024B2
:100BB0001548016821F0C0010160016801601E2034
:100BC00003F0ACFD0025114E00274FF00108C6F8D8
:100BD0009072FFF797FFC6F890826006040ED6F871
:100BE0000C0208B1641CE4B26D1CEDB2082DEED30A
:100BF000B9F1000F04D0FFF789FF2046BDE8F08768
:100C0000FFF7B6FFF9E7000000080240000041428C
:100C10002DE9F04105461248016821F0C00101604C
:100C2000016841F0400101600E4E4FF00008C6F827
:100C30009082FFF767FF00240127E809C6F88C02BD
:100C40006806050EC6F89072FFF75CFFC6F8908242
:100C5000FFF758FF641CE4B2082CEED3BDE8F08126
:100C6000000802400000414270B50B48016821F0C5
:100C7000C0010160016841F040010160074C0120A2
:100C8000206060601E2003F049FD00252560FFF70D
:100C900039FF656070BD0000000802408C024142CF
:100CA00070B50A48016821F0C0010160016841F097
:100CB00040010160064C012565601E2003F02EFDF9
:100CC00000202060FFF71EFF256070BD0008024075
:100CD0008C02414270B500241048016821F0C00127
:100CE0000160016801600E4D0120C5F88C02C5F855
:100CF0009002FFF707FF09E0641CE4B2FA2C03D965
:100D0000FFF7CEFF012070BDFFF7FCFED5F80C0207
:100D10000028F1D1C5F8900270BD00000008024023
:100D2000000041420122064B8240002903D018688E
:100D300010431860704718689043186070470000AF
:100D40000074004030B5084C236840F6FE728240C3
:100D50009343D1E900252A43D1E902510D432A43A7
:100D600082401A43226030BD00740040002904D044
:100D7000016841F0010101607047016821F0010143
:100D80000160704730B50368124A1340CC680A68A6
:100D90002243D1E905452C432243CC6922430C6A06
:100DA00022434C6A22438C6A22434C6B22438C6B55
:100DB00022431A430260426922F00703D1E90B245F
:100DC00022431A4342610A6942604A688260896824
:100DD000C16030BD3F801CF0704700008000A0F172
:100DE000C040002904D0016841F001010160704752
:100DF0000168024A1140016070470000FEFF0F00C9
:100E000010B5D0E901121143D0E903231A4311436D
:100E10004269114382691143C2691143026A114355
:100E2000426A1143826A1143C26A1143026B114341
:100E300002689200A2F1C04211608168082907D1BE
:100E400001688900A1F1C0410A6842F040020A60CD
:100E5000416BD1E9002342EA03128B688C891B02A3
:100E600043EA04431A430B8A42EA03520B7D896921
:100E700042EA03620A430168491C8900A1F1C041AA
:100E80000A60C16AB1F5804F08D000686FF0704108
:100E90008000A0F1C040C0F8041110BD816BD1E901
:100EA000002342EA03128B680C8A1B0243EA0453B4
:100EB0001A430B7D896942EA036200680A43800095
:100EC000A0F1C040C0F8042110BD00003EB50121D2
:100ED000042001F079F90120009000248DF80440ED
:100EE0008DF8064003218DF805108DF8070069463E
:100EF0001C4800F057F9FFF725FE322003F0F4FB01
:100F00008DF80840012202A9002000F00DF901220D
:100F100002A9A42000F008F916208DF8080001228B
:100F200002A9802000F000F90C208DF808000122B1
:100F300002A9882000F0F8F8022202A9A12000F0FE
:100F400019F89DF80800102803D19DF8090005281C
:100F500001D001203EBD41F2050103A002F08CFA50
:100F600000203EBD000802404354502049443A2529
:100F7000780D0A002DE9F04104460D461646FFF7AC
:100F800073FE7020FFF744FEFFF7A4FEE0B2FFF708
:100F90003FFEFFF79FFEFFF767FE7120FFF738FE69
:100FA000FFF798FE0024771E09E0BC4201D0012023
:100FB00000E00020FFF7F8FD2855641CE4B2B442BD
:100FC000F3D3BDE8F041FFF76BBE00002DE9F14718
:100FD00081B000240026DFF8408198F80000401C12
:100FE000C1B288F800104FF00A09B1FBF9F009FB13
:100FF00010104A4D002801D00A296ED2012201A901
:101000000220FFF7B7FF9DF80400010765D000F04C
:101010000F00062861D2FF218140C84340F0C00084
:1010200085F820003E4E4FF0010A002795F8200079
:101030000AFA04F1084243D03A480422694630F8DB
:101040001400FFF797FF95F83000C00716D09DF801
:1010500000109DF8010001F00F0100EB012105EBEC
:101060004400C1829DF802209DF8031002F00F0297
:1010700001EB02213288511A818117E09DF800109E
:101080009DF8010001F00F0100EB01207188091AA1
:1010900005EB440081819DF802209DF8031002F0C9
:1010A0000F0201EB02213288511AC1829DF8000023
:1010B0000821B1EB101F03D005EB4400C7828781E4
:1010C000641CE4B2052CB1D30126A989284611B9C4
:1010D000C08A00B9019788F800709DF80400C00626
:1010E00010D195F82000010604D520F0800085F885
:1010F000200007E04FF6FF71A981E98200F0E000CF
:1011000085F8200098F80000F02801D988F80090B0
:101110003046BDE8FC870000A800002074000020D5
:101120006A000020007100082DE9F04104460E46D7
:1011300015460027FFF798FD7020FFF769FDFFF7C0
:10114000C9FDE0B2FFF764FDFFF7C4FD002409E02C
:10115000305DFFF75DFDFFF7BDFD0746380003D1A9
:10116000641CE4B2AC42F3D3FFF79AFD3846BDE805
:10117000F08100001CB50121022001F025F84FF498
:101180003040009002208DF8050001208DF8040009
:1011900000208DF806006946014800F003F81CBDE8
:1011A000000402402DE9F041002201274FF0030C1A
:1011B00007FA02F50B682B40AB422CD106685300AE
:1011C0000CFA03F4A64306600E79D0F800809E4026
:1011D00046EA080606600E79012E01D0022E12D1D1
:1011E0008668A64386604E79D0F808809E4046EA1D
:1011F000080686604668AE43466045688E7996402C
:10120000B6B235434560C568A543C560CC799C40FE
:10121000C3681C43C460521C102AC9D3BDE8F081C6
:1012200010B54B07DB0E9A40C90800EB8100016A3C
:101230000F249C40A1430162016A1143016210BD69
:101240004183704701837047002A01D001837047B2
:101250004183704710B50A4C0723012219462046E6
:10126000FFF710FC2046FFF747FC02212046FFF75E
:10127000C8FB0028F9D02046BDE81040FFF7BEBBF0
:101280000020014010B50A4C07230122022120460C
:10129000FFF7F8FB2046FFF72FFC02212046FFF75F
:1012A000B0FB0028F9D02046BDE81040FFF7A6BBF0
:1012B0000020014070B506460025002404E000F03F
:1012C00009F80544641CE4B2B442F8D3B5FBF6F067
:1012D00080B270BD10B50A4C0723012206212046BA
:1012E000FFF7D0FB2046FFF707FC02212046FFF75F
:1012F00088FB0028F9D02046BDE81040FFF77EBBF0
:101300000021014010B50A4C032207231146204654
:10131000FFF7B8FB2046FFF7EFFB02212046FFF75F
:1013200070FB0028F9D02046BDE81040FFF766BBEF
:101330000022014070B52DED048BADF52C7D00240D
:1013400001ADFFF79FFF45F82400641CA4B2AB2C4D
:10135000F7D30199002055F820208A4200D9114680
:10136000401C80B2AB28F6D3019A002055F82030FB
:10137000934200D21A46401C80B2AB28F6D3881A9A
:10138000FFF711F89FED209B0E46054653EC192BF5
:10139000FEF728FF9FED1E8B53EC182BFEF794FFF2
:1013A000FFF76AF81C4C206046EC105B53EC192BDD
:1013B00051EC100BFEF716FF53EC182BFEF784FFD1
:1013C0009FED169B53EC192BFEF70CFFFFF754F81B
:1013D000606046EC105B9FED131B51EC100B53EC5F
:1013E000112BFEF7FFFE53EC182BFEF76DFF53ECAD
:1013F000192BFEF7F7FEFFF73FF8A0600DF52C7DE7
:101400002046BDEC048B70BD6666666666660A4063
:101410000000000000FEAF40D400002000000000EB
:101420000000E03F7C61325530AA024070B52DEDDE
:10143000048BADF52C7D002401ADFFF763FF45F86B
:101440002400641CA4B2AB2CF7D30199002055F8FA
:1014500020208A4200D91146401C80B2AB28F6D326
:10146000019A002055F82030934200D21A46401CC1
:1014700080B2AB28F6D3881AFEF795FF9FED209B2C
:101480000E46054653EC192BFEF7ACFE9FED1E8B66
:1014900053EC182BFEF718FFFEF7EEFF1C4C2060F4
:1014A00046EC105B53EC192B51EC100BFEF79AFE37
:1014B00053EC182BFEF708FF9FED169B53EC192BEE
:1014C000FEF790FEFEF7D8FF606046EC105B9FEDE4
:1014D000131B51EC100B53EC112BFEF783FE53EC56
:1014E000182BFEF7F1FE53EC192BFEF77BFEFEF7EF
:1014F000C3FFA0600DF52C7D2046BDEC048B70BDB4
:101500006666666666660A400000000000FEAF4040
:10151000C8000020000000000000E03F7C61325560
:1015200030AA0240FEE7000070B5054600240649D7
:1015300008884E88464300F0DFFD044901E00D8035
:10154000641CB442FBD370BD180000200000026090
:1015500030B50E4A4FF4A0744FF4F07500280AD04D
:10156000362000F0BDFD602000F0AEFD012090713E
:101570001580548030BD362000F0B2FD002000F010
:10158000A3FD002090711480558030BD180000200C
:101590002DE9FE4F00250026171AA3EB010881460E
:1015A0008A46681E002F03DD4FF00101019107E01C
:1015B00003D14FF00001019102E00190C7F1000753
:1015C000B8F1000F03DD4FF00100009007E003D1F8
:1015D0004FF00000009002E00090C8F1000847457D
:1015E00001DD3C4600E044464FF0000B601C0290D9
:1015F00015E01FFA8AF11FFA89F000F063F83D4404
:101600004644A54202DD2D1B01988144A64202DD1D
:10161000361B009882440BF1010B1FFA8BFB0298DA
:101620008345E6DDBDE8FE8F2DE9FE4F002500264F
:10163000171AA3EB010881468A46681E002F03DDB6
:101640004FF00101019107E003D14FF0000101913A
:1016500002E00190C7F10007B8F1000F03DD4FF081
:101660000100009007E003D14FF00000009002E07D
:101670000090C8F10008474501DD3C4600E04446C3
:101680004FF0000B601C029016E01FFA8AF11FFA5F
:1016900089F00C9A00F09DF83D444644A54202DDD5
:1016A0002D1B01988144A64202DD361B009882441E
:1016B0000BF1010B1FFA8BFB02988345E5DDBDE8BA
:1016C000FE8F000000B500F0D7FB00F023FD0248BC
:1016D00002490088088000BD14000020000002605C
:1016E000F0B505460E4614461F463346224631469F
:1016F0002846FFF74DFF3B462A4631462846FFF76E
:1017000047FF3B46224639462846FFF741FF3B4606
:10171000224631462046BDE8F040FFF739BF2DE9AB
:10172000FC4F07468846002415460320A0EB4206DE
:101730004BE0A8EB050081B207EB040A01901FFA09
:101740008AF0FFF7BFFFA8EB040081B207EB0509A1
:1017500000901FFA89F0FFF7B5FF08EB040B1FFAA2
:101760008BF11FFA89F0FFF7ADFF08EB05091FFAAF
:1017700089F11FFA8AF0FFF7A5FF1FFA89F1A7EB9D
:1017800004091FFA89F0FFF79DFFA7EB050A1FFA6E
:101790008BF11FFA8AF0FFF795FF019881B21FFACB
:1017A00089F0FFF78FFF009881B21FFA8AF0FFF7E8
:1017B00089FF641C002E03DA06EB8406B61D04E0E4
:1017C000601B06EB80060A366D1EAC42B1DDBDE83B
:1017D000FC8F70B504460D462A2000F081FC260AD5
:1017E000304600F071FCE0B200F06EFC304600F0D4
:1017F0006BFCE0B200F068FC2B2000F071FC2C0ABE
:10180000204600F061FCE8B200F05EFC204600F0EB
:101810005BFCE8B200F058FC2C2000F061FCBDE855
:101820007040104600F050BC2DE9F041A0B00024FB
:101830001F940121182000F0C7FC0121084600F088
:10184000D1FC40201D9001258DF878508DF87A400C
:1018500003268DF879608DF87B50DFF838841DA958
:101860004046FFF79FFC4CF6B3701D9002278DF8A1
:1018700078708DF87A408DF879608DF87B501DA9CD
:101880004046FFF78FFC4FF680701D908DF8787002
:101890008DF87A408DF879608DF87B50FE4E1DA949
:1018A0003046FFF77FFC0C2200214046FFF7B8FCD2
:1018B0000C2201214046FFF7B3FC0C2204214046D4
:1018C000FFF7AEFC0C2205214046FFF7A9FC0C22D5
:1018D00007214046FFF7A4FC0C2208214046FFF7F1
:1018E0009FFC0C2209214046FFF79AFC0C220A219A
:1018F0004046FFF795FC0C220B214046FFF790FC79
:101900000C220E214046FFF78BFC0C220F21404693
:10191000FFF786FC0C2207213046FFF781FC0C22E2
:1019200008213046FFF77CFC0C2209213046FFF7E6
:1019300077FC0C220A213046FFF772FC0C220B21A7
:101940003046FFF76DFC0C2211463046FFF768FC6D
:101950000C220D213046FFF763FC0C220E2130468D
:10196000FFF75EFC0C220F213046FFF759FC1021D7
:101970004046FFF767FC20214046FFF763FC8021CB
:101980004046FFF75FFC0A2002F0AEFE079708947E
:10199000052009900A940B940C940D940720009054
:1019A00001940820029003940494059406940E94E4
:1019B0000F94109410201190129414941394159471
:1019C0001694000217901894800019901A9407A892
:1019D0001B90CDF870D00EA8FFF712FA012100205D
:1019E000FFF7FCF9142002F07FFEB02000F078FB36
:1019F000042000F069FB00F06FFCA84CA0800146B9
:101A0000A7A001F039FDA088A0F5A851293905D07B
:101A1000A7A001F031FD20B0BDE8F0813A2000F030
:101A20005FFB552000F050FBB42000F04DFB002080
:101A300000F04AFBC02000F053FB032000F044FB01
:101A4000DF2000F041FB402000F03EFB122000F0C0
:101A50003BFB002000F038FB012000F035FB0020AC
:101A600000F032FB432000F02FFBC12000F038FBD8
:101A7000052000F029FB2F2000F026FB082000F0B5
:101A800023FB082000F020FB002000F01DFBC420F9
:101A900000F026FB632000F017FB002000F014FB91
:101AA000082000F011FB082000F00EFBC82000F019
:101AB00017FB062000F008FB0C2000F005FB1620A9
:101AC00000F002FB242000F0FFFA302000F0FCFAC6
:101AD000482000F0F9FA3D2000F0F6FA282000F046
:101AE000F3FA202000F0F0FA142000F0EDFA0C20B8
:101AF00000F0EAFA042000F0E7FA062000F0E4FA29
:101B00000C2000F0E1FA162000F0DEFA242000F0AC
:101B1000DBFA302000F0D8FA482000F0D5FA3D205A
:101B200000F0D2FA282000F0CFFA202000F0CCFA02
:101B3000142000F0C9FA0C2000F0C6FA042000F0CE
:101B4000C3FAC92000F0CCFA062000F0BDFA0C2040
:101B500000F0BAFA162000F0B7FA242000F0B4FA28
:101B6000302000F0B1FA482000F0AEFA3D2000F03D
:101B7000ABFA282000F0A8FA202000F0A5FA1420E3
:101B800000F0A2FA0C2000F09FFA042000F09CFA6A
:101B9000062000F099FA0C2000F096FA162000F0CA
:101BA00093FA242000F090FA302000F08DFA4820BB
:101BB00000F08AFA3D2000F087FA282000F084FA2D
:101BC000202000F081FA142000F07EFA0C2000F0B2
:101BD0007BFA042000F078FAB62000F081FA0020A9
:101BE00000F072FACA2000F07BFA062000F06CFACE
:101BF0000C2000F069FA162000F066FA242000F0AC
:101C000063FA302000F060FA482000F05DFA3D20D1
:101C100000F05AFA282000F057FA202000F054FA79
:101C2000142000F051FA0C2000F04EFA042000F0CD
:101C30004BFA062000F048FA0C2000F045FA162076
:101C400000F042FA242000F03FFA302000F03CFA85
:101C5000482000F039FA3D2000F036FA282000F044
:101C600033FA202000F030FA142000F02DFA0C2076
:101C700000F02AFA042000F027FAD02000F030FA11
:101C8000952000F021FA062000F01EFA082000F04E
:101C90001BFA17E0000C0240001002401800002060
:101CA0004C43442049443A2025780D0A00000000A6
:101CB0004C4344B3F5CABCBBAFCAA7B0DCA3A10D6B
:101CC0000A000000102000F0FFF93F2000F0FCF9AE
:101CD000D12000F005FA022000F0F6F9282000F0EB
:101CE000F3F9282000F0F0F9402000F0EDF9E120B0
:101CF00000F0F6F9002000F0E7F9002000F0E4F928
:101D0000002000F0E1F9002000F0DEF9002000F0F2
:101D1000DBF9002000F0D8F9E22000F0E1F98020A2
:101D200000F0D2F92A2000F0DBF9002000F0CCF915
:101D3000002000F0C9F9012000F0C6F93F2000F0B2
:101D4000C3F92B2000F0CCF9002000F0BDF90020F1
:101D500000F0BAF9012000F0B7F9DF2000F0B4F983
:101D6000112000F0BDF9782002F0BEFC292000F01F
:101D7000B7F9C12000F0B4F9052000F0A5F92F2033
:101D800000F0A2F9082000F09FF9082000F09CF96B
:101D9000002000F099F90120FFF7DAFB002000F0A5
:101DA00027F803484088FFF7BFFB0248056032E68A
:101DB00014000020988241420346012000E058436D
:101DC000491EC9B2FBD2704708B50348008800908D
:101DD000BDF8000008BD00000000026010B500F072
:101DE0007FF9052002F09AFCBDE81040FFF7ECBF38
:101DF00070B500211F4A9279002A16D0082814D203
:101E0000DFE800F00406080A0C0E101206200CE0B1
:101E100007200AE0042008E0052006E0012004E095
:101E2000002002E0032000E00220082812D2DFE8B0
:101E300000F0110406080A0C0E1080210AE040216F
:101E400008E0C02106E0202104E0A02102E060219A
:101E500000E0E021362441F480552C2000F040F9C8
:101E60002E20FFF7BBFF29462046BDE8704000F05A
:101E700055B900001800002010B502460C462A2073
:101E800000F02EF9100A00F01FF9D0B200F01CF992
:101E90000C4A1088000A00F017F9107800F014F9C5
:101EA0002B2000F01DF9200A00F00EF9E0B200F03E
:101EB0000BF95088000A00F007F99078BDE810404F
:101EC00000F002B91800002070B504460D461E4609
:101ED0002A2000F005F9200A00F0F6F8E0B200F040
:101EE000F3F8280A00F0F0F8E8B200F0EDF82B2043
:101EF00000F0F6F8100A00F0E7F8D0B200F0E4F8CD
:101F0000300A00F0E1F8F0B200F0DEF8BDE8704011
:101F10002C2000F0E5B800002DE9F84F82460C4671
:101F20001F46A346780701D0012000E0002000EB07
:101F3000D70079084843C0B20090203A02F0FF0968
:101F400000264BE00C2F14D0102F19D0182F48D199
:101F5000254909EBC90001EB8000855D4FF00008C1
:101F6000280612D52148214602885046FFF731FC49
:101F700013E01F4909EB490001EB8000855DEDE7A7
:101F80001C4800EB0910855DE8E70A9828B9174856
:101F9000214642885046FFF71CFC6806050E641C6B
:101FA000A4B21248001D4088A0421AD9A4EB0B002D
:101FB000B8420AD15C460AF1010A1FFA8AFA0B48B4
:101FC000001D008850450CD906E008F1010808F012
:101FD000FF08B8F1080FC3D3761CF6B2009886420A
:101FE000B0D3BDE8F88F0000A06300081400002003
:101FF0003C590008B05D00082DE9FF4F81B08046D4
:10200000DDF838B092461D4600260024A1464FEA6E
:102010005B071FE0281B401EC1B20A20FFF7CCFE61
:10202000BAFBF0F00A21B0FBF1F201FB120026B975
:10203000691E8C4201DA90B101263030C2B207FB32
:10204000048080B25B46CDF800900299FFF764FFF0
:10205000641CE4B2AC42DDD305B0BDE8F08F07FBF1
:10206000048080B25B462022CDF800900299FFF7F1
:1020700053FFEDE72DE9F84F0446DDE90A760D46FA
:1020800004F0FF0810191FFA80F958191FFA80FA96
:102090004FF0000B11E04C4502D34446E81985B2DD
:1020A00055450FD23B4629462046CDF800B0FFF7F4
:1020B00033FF04EB570084B2761C3278A2F1200083
:1020C0005E28E8D9BDE8F88F01B5BDF800000090A2
:1020D000BDF800000149088008BD00000000026052
:1020E00001B5BDF800000090BDF80000014908806E
:1020F00008BD0000FEFF0160054841880088491EB8
:10210000401E8BB281B200221046FFF7DDBE0000F8
:10211000180000202C20FFF7E3BF0000024A1080C7
:10212000901C018070470000FEFF016010B5094C53
:102130004FF480512046FFF785F84FF400512046B8
:10214000FFF780F82046BDE810404FF40041FFF74C
:1021500077B8000000040240FEE7704730B50F2357
:10216000C27801250178002A1FD0154A126802F4AE
:10217000E062C2F5E062C2F30722C2F10404D34078
:102180004278A24084781C401443220101F1E021EE
:1021900081F80024007800F01F018D404009800084
:1021A00000F1E020C0F8005130BD01F01F00854073
:1021B0004809800000F1E020C0F8805130BD0000E7
:1021C0000CED00E070470000054A002903D01168BB
:1021D000014311607047116881431160704700002E
:1021E00030380240054A002903D0116801431160CC
:1021F0007047116881431160704700003838024011
:10220000054A002903D01168014311607047116825
:10221000814311607047000040380240054A0029A0
:1022200003D0116801431160704711688143116048
:10223000704700004438024070B5244B196801F023
:102240000C01234C00291ED0661004291DD008293A
:102250001DD00460196801F0F00109091D4A545CA1
:102260000168E14041601C6804F4E054A40A145D74
:1022700021FA04F484601B6803F460435B0BD25CB6
:10228000D140C16070BD0460E4E70660E2E70F4A38
:10229000121F1168C1F38055116801F03F0135B17B
:1022A000B6FBF1F11468C4F38814614305E0B4FB94
:1022B000F1F11468C4F3881461431268C2F3014257
:1022C000521C5200B1FBF2F10160C3E70838024032
:1022D0000024F400B400002000B5BF20FFF700FF89
:1022E000FFF772FDFFF770FDFFF76EFDFFF76CFD66
:1022F0000146FFF769FD00EB012080B200BD000040
:1023000010B50121074800F015F80749096888420F
:1023100007D003F02BFA0146BDE8104003A001F0FE
:10232000ABB810BD00380040A40243423078257895
:102330000D0A00000246002012890A4200D0012046
:1023400070478089704700002DE9F047054600245A
:10235000134F4FF400494FF400564FF6FF7828040E
:1023600004D549463846FEF76DFF03E04946384636
:10237000FEF766FF31463846FEF762FF0A2002F09C
:10238000CDF908EA450531463846FEF75BFF0A20DD
:1023900002F0C4F9641CE4B2102CE0D3BDE8F0876D
:1023A00000040240704700000CB500220192009228
:1023B0002749086840F4803008604FF4A04308685B
:1023C00000F4003000900198401C0190009810B972
:1023D00001989842F3D10868800302D5012000904B
:1023E00000E000920098012831D11948403002687D
:1023F00042F0805202601748026842F44042026094
:102400001348083002680260026842F40042026029
:10241000026842F4A0520260021F0F4B13600A6868
:1024200042F080720A600A689201FCD50B4A40F2C1
:1024300005711160016821F003010160016841F03C
:10244000020101600168C1F381010229FAD10CBDCA
:10245000003802400070004008544007003C024031
:102460004FF0E021042804D0086920F0040008613E
:102470007047086940F00400086170477047000029
:1024800010B51248016841F47001016010480168FC
:1024900041F0010101600E4A00210832116002681A
:1024A0000C4B1A400260031D0B4A1A60026822F4AA
:1024B0008022026006480C300160FFF775FF034977
:1024C0004FF000608039086010BD000088ED00E02A
:1024D00000380240FFFFF6FE1030002470B50221E4
:1024E0004D07284600F0C1F8284CD4F8A4128842C1
:1024F0000CD00221284600F0ADF8284600F0ADF8D7
:1025000042F6E0610144284600F0BBF80421284669
:1025100000F0ABF8D4F8A41288420CD0042128466D
:1025200000F098F8284600F09AF841F270710144E2
:10253000284600F0A8F80821284600F096F8D4F8BC
:10254000A41288420BD00821284600F083F82846C0
:1025500000F087F800F6B831284600F096F8102110
:10256000284600F082F8D4F8A41288420DD0102139
:10257000284600F06FF8284600F075F800F2DC51AC
:102580002846BDE8704000F082B870BD00004342AC
:1025900010B50D4C0121204600F067F801280CD140
:1025A0000A480168C94301604168C94341608168C4
:1025B000C9438160C168C94381602046BDE81040BD
:1025C000012100F047B80000000400408082424230
:1025D00070B5174D0121284600F047F8012821D198
:1025E000144C2088B0F57A7F02D2401C208019E07C
:1025F0001149012008701148114990ED000AD1EDF0
:10260000000A30EE200A80ED000A10EE100AFDF7F5
:10261000F0FE41EC100B0BA053EC102B00F02CFF44
:10262000002020802846BDE87040012100F012B84B
:102630000008004066000020240000203000002038
:102640002C0000206E6578745F667265203D202541
:10265000660D0A00C94301827047406B7047806B6A
:102660007047C06B7047006C704702460020138AA9
:102670000B4092890A40002B02D0002A00D0012092
:1026800070474163704781637047C163704701645D
:10269000704700002DE9FF4F83B01746DDE912AB0C
:1026A000DDE910891E464C494FF4784008804BA064
:1026B0001024CDE900404A4DA02128206B882A88AB
:1026C000FFF7D8FC47A0CDE900406B882A88A021FD
:1026D0007820FFF7CFFC44A0CDE900406B882A8822
:1026E000B4212820FFF7C6FC40A0CDE900406B884C
:1026F0002A88B4217820FFF7BDFC3DA0CDE9004039
:102700006B882A88C8212820FFF7B4FC39A0CDE9BE
:1027100000406B882A88C8217820FFF7ABFC36A0E0
:10272000CDE900406B882A88DC212820FFF7A2FC35
:1027300032A0CDE900406B882A88DC217820FFF7A1
:1027400099FC2FA0CDE900406B882A88F021282031
:10275000FFF790FC04230094A0214020039AFFF788
:102760004BFC04230094A0219020049AFFF744FC22
:1027700004233A46B42140200094FFF73DFC042393
:102780003246B42190200094FFF736FC04234246E1
:10279000C82140200094FFF72FFC04234A46C8219B
:1027A00090200094FFF728FC04235246DC214020AF
:1027B0000094FFF721FC04235A46DC21902000946A
:1027C000FFF71AFC00940323F0216020149AFFF70E
:1027D00013FC07B0BDE8F08F1400002078313A00F8
:1027E0001800002079313A0078323A0079323A0004
:1027F00078333A0079333A0078343A0079343A0041
:102800006661632069733A002DE9F04F2DED0C8B62
:1028100089B0002400251F20FE4E3080FE494FF66F
:10282000FF78A1F800804046FEF77EFE4FF478471F
:1028300037804046FEF778FEA246A6F800A0F7488B
:102840004FF01008282100686423CDE90080C822D9
:102850000846FFF70FFC14213A46084600F0F8FA44
:10286000DFF8BC9389F820A09FEDEE0A89ED090AF4
:102870009FEDED9B9FEDEEBB9FEDEFABF04E4FF06C
:10288000900AA9F10407D9F804100120884799F8A3
:1028900020000121B1EB901F4BD1002520F040001A
:1028A00089F8200005A8B9F80C1020F8241000EBD6
:1028B0008400B9F816104180641CE4B2012C06D0E3
:1028C000022C13D0032C22D0042C32D13FE014214F
:1028D0004FF6FF72084600F0BBFA30884FF478429A
:1028E000143880B2142100F0B3FA22E030884FF699
:1028F000FF72143880B2142100F0AAFA70884FF4E5
:102900007842143881B2142000F0A2FA11E07088E5
:102910004FF6FF72143881B2142000F099FA7088D3
:102920004FF47842143881B23088143880B200F005
:102930008FFA0A2001F0D8FE6D1CADB2B5F57A7F92
:10294000A1D9002009B0BDEC0C8BBDE8F08FBDF81B
:102950001400BDF81810401A00D54042BDF81610FA
:10296000BDF81A20891A00D549424043494308441A
:10297000FDF719FD41EC100B00F08EFD51EC100B32
:10298000FDF71EFD84B2BDF81C00BDF82010401AF2
:1029900000D54042BDF81E10BDF82220891A00D58E
:1029A0004942404349430844FDF7FDFC41EC100B0C
:1029B00000F072FD51EC100BFDF702FD1FFA80FBD9
:1029C00000EE104AF8EE400A00EE10BAB8EE401AD7
:1029D00080EE810A10EE100AFDF70BFD41EC180B9A
:1029E00053EC192B51EC180BFDF716FD7DD353EC6E
:1029F0001B2B51EC180BFDF727FD76D3002C74D060
:102A0000BBF1000F71D0BDF81400BDF81C10401AC6
:102A100000D54042BDF81610BDF81E20891A00D519
:102A20004942404349430844FDF7BDFC41EC100BCB
:102A300000F032FD51EC100BFDF7C2FC84B2BDF882
:102A40001800BDF82010401A00D54042BDF81A10F9
:102A5000BDF82220891A00D5494240434943084421
:102A6000FDF7A1FC41EC100B00F016FD51EC100B32
:102A7000FDF7A6FC80B200EE104AF8EE400A00EE28
:102A8000100AB8EE401A80EE810A10EE100AFDF727
:102A9000B0FC41EC180BB0EE49CAF0EE69CA53EC39
:102AA0001C2B51EC180BFDF7B7FC0AD3B0EE4BDA38
:102AB000F0EE6BDA53EC1D2B51EC180BFDF7C4FC58
:102AC00065D2002470884FF6FF72143881B23088C6
:102AD000143880B200F0BCF914214FF47842084653
:102AE00000F0B6F953EC1A2B00E01EE051EC180B85
:102AF000FDF778FBFDF764FCBDF82020BDF822103F
:102B0000BDF81E30CDE9013280B2CDE90310BDF829
:102B10001C000090BDF81A30BDF81820BDF8161042
:102B2000BDF81400FFF7B6FDADE6002470884FF63F
:102B3000FF72143881B23088143880B200F088F9FE
:102B400014214FF47842084600F082F953EC1A2B16
:102B500051EC180BFDF746FBFDF732FCBDF82020C9
:102B6000BDF82210BDF81E30CDE9013280B2CDE9AA
:102B70000310BDF81C000090BDF81A30BDF81820F5
:102B8000BDF81610BDF81400FFF784FD7BE6BDF814
:102B90001800BDF81C10401A00D54042BDF81A10AC
:102BA000BDF81E20891A00D54942404349430844D4
:102BB000FDF7F9FB41EC100B00F06EFC51EC100B33
:102BC000FDF7FEFB84B2BDF81400BDF82010401ADA
:102BD00000D54042BDF81610BDF82220891A00D554
:102BE0004942404349430844FDF7DDFB41EC100BEB
:102BF00000F052FC51EC100BFDF7E2FB80B200EE4E
:102C0000104AF8EE400A00EE100AB8EE401A80EEC4
:102C1000810A17E01400002016000020FC70000854
:102C20007400002000000000666666666666EE3F7F
:102C3000CDCCCCCCCCCCF03F000000000000594003
:102C40001800002010EE100AFDF7D3FB41EC180B22
:102C500053EC1C2B51EC180BFDF7DEFB06D353ECA9
:102C60001D2B51EC180BFDF7EFFB31D200247088BF
:102C70004FF6FF72143881B23088143880B200F0F9
:102C8000E7F814214FF47842084600F0E1F853ECDD
:102C90001A2B51EC180BFDF7A5FAFDF791FBBDF8C7
:102CA0002020BDF82210BDF81E30CDE9013280B2DF
:102CB000CDE90310BDF81C000090BDF81A30BDF836
:102CC0001820BDF81610BDF81400FFF7E3FCDAE594
:102CD000BDF81810BDF814000A1A00EE102A328848
:102CE000B8EEC01AA2F1280300EE103AB8EEC00AFE
:102CF000C0EE010AC9ED090A084400EE100AF6EE1A
:102D0000001AB8EE401A00EE102AB8EE400A00EEA3
:102D1000C10A20EE210ABDEEC00A10EE100AA9F881
:102D20002C00BDF81E30BDF81600191A00EE101A5E
:102D30007188B8EEC01AA1F1280400EE104AB8EE6E
:102D4000C02A82EE010A89ED0A0A184401EE100A2F
:102D5000B8EE412A01EE101AB8EE411A00EE421AFE
:102D600021EE211ABDEEC11A11EE100AA9F82E00AB
:102D7000FDEEE00A10EE900A002800DA4042022838
:102D800008DCBDEEC00A10EE100A002800DA40424E
:102D900002282ADD0024143A143990B289B24FF681
:102DA000FF7200F055F814214FF47842084600F005
:102DB0004FF81BA0CDE90080738832881A212820A3
:102DC000FFF758F999F8300040B1002089F8300039
:102DD00030B187F800A0D020787054E50120F5E7E5
:102DE000D020387087F801A04DE512491F200880D7
:102DF0004FF6FF742046FEF797FB0FA0CDE9008049
:102E0000738832886E212320FFF734F94FF47A70EB
:102E100001F06AFC2046FEF787FB012092E50000E6
:102E20005450204E65656420726561646A757374E0
:102E30002100000014000020546F75636820536364
:102E40007265656E2041646A757374204F4B210072
:102E50002DE9F04104460D461948028004F10D00A9
:102E600082B2193880B22B462946FEF791FB05F154
:102E70000D0083B2193881B222462046FEF788FB46
:102E8000681C074681B2601C064680B2FEF71AFC39
:102E9000B9B2601E074680B2FEF714FC681E804679
:102EA00081B2B0B2FEF70EFC1FFA88F1B8B2FEF79D
:102EB00009FC29462046BDE8F0410622FEF72FBC5A
:102EC0001400002010B5084C80202070FDF7FEFF94
:102ED000064844F82C0C06492078897901F0010154
:102EE00008432070012010BDA4000020CD0F000871
:102EF000180000202DE9F047002500241A4EA046B6
:102F0000C6F8A882DFF86490C9F88C82C6F8A4825B
:102F100000F018F9062001F001FCC6F8A882012093
:102F200001F0FCFB0127C6F8A872012001F0F6FBB6
:102F3000C6F8A8824FF6FF7A0AEA4404C6F8A882C7
:102F4000012001F0EBFBC6F8A872D9F8080208B11D
:102F5000641CA4B26D1CEDB2102DEDD32009C6F88F
:102F6000A472BDE8F08700000080404200004142AA
:102F7000FEB5064600246D463046FFF7BBFF25F838
:102F80001400641CA4B2052CF6D30021481C04468E
:102F900080B20BE035F8113035F81020934203D998
:102FA00025F8112025F81030401C80B20528F1D3F7
:102FB000A1B20429EAD30021012035F810201144E0
:102FC00089B2401C80B20428F7D30320B1FBF0F093
:102FD000FEBD00002DE9F04104460F46064D28785D
:102FE000FFF7C6FF06466878FFF7C2FF26803880E5
:102FF0000120BDE8F0810000700000202DE9FF41B4
:1030000006460F4602A903A8FFF7E4FF88B3694606
:1030100001A8FFF7DFFF68B3BDF80420BDF80C304E
:103020009A4203D802F13200834205D3934226D854
:1030300003F13200824222D2BDF80050BDF80840B0
:10304000A54203D805F13200844204D3AC4216D81D
:103050003234A54213D2981840083080BDF80800D9
:10306000BDF80010084440083880012004B0BDE8D5
:10307000F08100E001E00020F8E70020F6E7002002
:10308000F4E7000010B52D4909682D4C002908D03F
:1030900094F82000010645D520F0800084F8200037
:1030A00047E00200264800F1160100F10C0002D0B2
:1030B000FFF7A4FF2AE0FFF7A1FF38B3B4F92C0013
:1030C00094ED091A00EE100AA08900EE900AB8EEFD
:1030D000C00AF8EE600A01EE200ABCEEC00A10EE4B
:1030E000100AA081B4F92E0094ED0A1A00EE100A1D
:1030F000E08A00EE900AB8EEC00AF8EE600A01EE2F
:10310000200ABCEEC00A10EE100AE08294F82000FB
:1031100000060ED4C02084F82000A089A082E08A96
:10312000E08306E00020A082E0834FF6FF70A081DC
:10313000E08294F8200000F0800010BD00024142BF
:10314000740000202DE9F04705460024DFF83480A4
:103150000D4E00274FF00109280602D5C8F88C92C1
:1031600001E0C8F88C726806050EC6F8A872012046
:1031700001F0D4FAC6F8A892641CE4B2082CEBD390
:10318000BDE8F087000041420080404210B5104C7D
:1031900040F22551204600F0CBF80E4909688842DC
:1031A00010D0204600F05EF9C2B20B4940F2FE3367
:1031B0000A4C4888984206D90020488001220A70AB
:1031C00084F8FF0310BD431C4B80225410BD000047
:1031D000004C0040A402434234000020EC000020D8
:1031E00070B5164C40F22551204600F0A1F8002899
:1031F0000ED0204600F036F9C1B2114A10880304FF
:1032000006D444044FF0000307D50A2901D01380E7
:1032100070BD40F40040108070BD0D290AD0094DEA
:10322000C0F30D042955401C80B21080C728F3D983
:10323000138070BD40F48040108070BD00100140CC
:10324000AE000020EE08002070B51F4D40F2255161
:10325000284600F06DF81D4909681D4C884217D0BA
:10326000284600F0FFF8C2B2B4F8000440F2FF3183
:10327000C0F30E0088420BD2B4F80004B4F8003456
:10328000C0F30E01481C60F30E03A4F8003462542E
:1032900040F22441284600F04BF8012812D1B4F83E
:1032A000000440F40040A4F80004284600F0DAF8D6
:1032B00008A10748FCF784FF08B1012000E00020C6
:1032C0000749087070BD000000480040A402434256
:1032D000EC040020434C4F5345440D0A000000000D
:1032E0006800002010B50A4C40F22551204600F03D
:1032F0001FF808490968884208D0204600F0B2F853
:10330000C1B22046BDE8104000F0B0B810BD0000CA
:1033100000140140A4024342002904D0818941F4F1
:10332000005181817047818921F40051818170476A
:1033300070B5002440F66A12C1F3421301F01F0574
:10334000012606FA05F2012B0CD0022B0DD0838A40
:103350001340090A8E40008830400BB100B10124AF
:10336000204670BD83891340F3E7038A1340F0E7DA
:1033700010B540F66A13C1F3421301F01F04012196
:10338000A140012B07D0022B07D014303AB10268BC
:103390000A43026010BD0C30F8E71030F6E702680F
:1033A0008A43026010BD00007FB504460D46208AA6
:1033B00020F44051E88808432082A08941F20C6142
:1033C0008843A9882A8911436A8902431143A1814C
:1033D000A08A20F44071A8890843A0826846FEF7BD
:1033E0002BFF1E48844202D01D48844201D103981D
:1033F00000E00298A189090408D500EBC00101EBA7
:10340000001029684900B0FBF1F007E000EBC001B3
:1034100001EB001029688900B0FBF1F06422B0FBD9
:10342000F2F109010B096FF018056B4300EB830003
:10343000A3891D044FF0320307D503EBC000B0FB96
:10344000F2F000F00700084306E003EB0010B0FBC9
:10345000F2F000F00F00084320817FBD0010014012
:10346000001401408088C0F308007047C1F30801D0
:1034700081807047FEE700000FB4054B10B503A92B
:10348000044A029800F01CF910BC5DF814FB00001F
:10349000C9490008B000002000B52DED048BB0EE46
:1034A000409AF0EE609A83B051EC190BFDF792F957
:1034B00041EC180B18EE100A18EE901A8DED008BE7
:1034C000002818BF0120084320F00040C0F17F60B1
:1034D00000F1E040C00F14D019EE101A19EE900A56
:1034E0008DED009B002918BF0121084320F000400A
:1034F000C0F17F6000F1E040C00F04BF012000F088
:1035000017F8B0EE480A03B0F0EE680ABDEC048B81
:1035100000BD02E008C8121F08C1002AFAD1704796
:103520007047002001E001C1121F002AFBD1704743
:103530000149086070470000C40000202DE9FF5FCA
:1035400082B00021DDE90430020DDDF840B0034314
:1035500018D044F61050A2F2FF32424315141198CD
:1035600001281FD0A5EB0B00401C5FEA000A4FF0BA
:1035700000064E4FDFF83891B046504615D5CAF1D7
:10358000000413E0119801244AA3012801D16FEA35
:103590000B010298119AC0E90031C0E9024206B05D
:1035A000BDE8F09FCBF10000DFE704460021404A70
:1035B000491842EB0450CDE9001012E0E00707D0B3
:1035C00032463B4640464946FCF70CFE804689465B
:1035D00032463B4610461946FCF704FE06460F46A7
:1035E0006410002CEAD1DDE90401DDE90023BAF121
:1035F000000F06DAFCF7F6FD42464B46FCF7F2FDFB
:1036000005E0FCF761FE42464B46FCF75DFE0446D2
:103610000E460022284BFCF717FF03D84FF0FF306F
:10362000014607E00022254B20463146FDF72BF8E6
:10363000FDF721F9102409E0002C0ADB0A220023FF
:10364000FCF74CFF039B30321A55641E50EA01020E
:10365000F2D1641C039AC4F111031444119A012A93
:1036600003D0012208430DD10AE0084304D0002012
:103670004FF0110B119072E7A3EB0B056D1E0DE0DF
:103680005B4504DD4FF0000205F1010504E003DABB
:103690004FF00002A5F10105002AECD00298119923
:1036A000C0E90231C0E9004579E70000000014409C
:1036B0000000F03F300000000000F0430000E03F59
:1036C0002DE9FF4F95B09B468946064600250FE23F
:1036D000252877D100242746F84A0121059400E0E7
:1036E000044316F8013F203B01FA03F01042F7D1E2
:1036F00030782A2811D06FF02F033078A0F13002F3
:10370000092A16D8059A44F0020402EB820203EB60
:1037100042021044761C0590EFE759F8042B0592FD
:10372000002A03DA504244F40054059044F00204A5
:10373000761C30782E2816D116F8010F44F00404B8
:103740002A280DD06FF02F023078A0F13003092B1A
:1037500009D807EB870302EB4303C718761CF3E78E
:1037600059F8047B761C30786C280FD006DC4C2886
:1037700017D068280DD06A2814D104E0742810D01E
:103780007A280FD10DE044F400140AE044F48014C8
:1037900001E044F440147278824202D104F58014AE
:1037A000761C761C307866280BD013DC582877D02E
:1037B00009DC002875D04528F6D04628F4D04728E3
:1037C0001AD19DE118E0632835D0642879D06528A6
:1037D00012D195E1702873D008DC6728F1D06928F0
:1037E0006FD06E280DD06F2806D1B5E073282CD08D
:1037F000752875D0782874D05A46179990476D1C53
:1038000075E1C4F30250022809D003280DD0D9F87D
:10381000001004280DD00D6009F1040967E1D9F802
:103820000010EA17C1E90052F6E7D9F800100D8040
:10383000F2E70D70F0E719F8041B8DF80010002076
:103840008DF80100EA46012003E059F804AB4FF07F
:10385000FF3061074FF0000102D40DE008F10101D3
:103860008846B9420FDA8045F8DB1AF808100029BB
:10387000F4D108E008F1010188468142FADB1AF828
:1038800008100029F6D105985B46A0EB08072146F1
:103890003846179A00F094FA284400EB080507E030
:1038A0004DE029E10DE01AF8010B5A4617999047AF
:1038B000B8F10108F7D25B4621463846179A13E162
:1038C00042E00A220092C4F302524FF0000A022A98
:1038D00008D059F804CB032A4FEAEC710AD00DE066
:1038E00029E02AE009F1070121F00702F2E802C10C
:1038F000914609E00FFA8CFC4FEAEC71042A03D1DF
:103900004FFA8CFC4FEAEC71002907DA0A460021D5
:10391000DCF1000C61EB02012D2202E0220504D54E
:103920002B228DF80420012203E0E20701D020229F
:10393000F7E7904659E00A2102E010220DE010213D
:103940004FF0000A00910BE010224FF0000A44F003
:1039500004040827009203E008224FF0000A0092B6
:10396000C4F30252022A05D059F804CB0021032ADD
:1039700008D009E009F1070121F00702F2E802C1CD
:10398000914605E01FFA8CFC042A01D10CF0FF0CD3
:103990004FF00008220728D5702806D0009B83F03E
:1039A000100353EA0A0305D00EE040228DF80420EC
:1039B000012208E05CEA010206D030228DF80420E2
:1039C0008DF8050002229046009B83F0080353EA1D
:1039D0000A030AD15CEA010201D1620705D530224F
:1039E0008DF804204FF001087F1E582804D034A021
:1039F00003900EA802900DE036A0F9E7534660460A
:103A0000009AFCF76BFD84460398825C0298401E86
:103A1000029002705CEA0100F0D1029806A9081A2F
:103A200000F1200A600702D524F4803400E0012769
:103A3000574502DDA7EB0A0000E0002000EB0A0179
:103A4000009005984144401A0590E00306D45B4677
:103A50002146179A059800F0B3F90544002706E0BF
:103A600001A85A46C05D179990476D1C7F1C4745B9
:103A7000F6DBE0030CD55B462146179A059800F06B
:103A80009FF9054404E030205A46179990476D1C71
:103A90000099481E00900029F5DC08E00298029980
:103AA0005A460078491C0291179990476D1CBAF14B
:103AB0000001AAF1010AF1DC65E10000092801001A
:103AC0003031323334353637383961626364656694
:103AD0000000000030313233343536373839414256
:103AE000434445460000000000F058F90544761CA8
:103AF000307800287FF4ECAD19B02846BDE8F08F8F
:103B0000620700D4062709F1070222F0070CFCE83F
:103B10000223E14603F000485FEA080C02D00FF2EE
:103B2000702C0DE05FEA045C02D50FF2682C07E010
:103B30005FEAC47C02D00FF2602C01E0AFF2700C9F
:103B40004FF0FF3823F00043CDF850C065280CD06B
:103B500006DC452809D046281DD047283DD13DE048
:103B6000662818D067287ED138E00021112F01DBAC
:103B7000112000E0781CCDE9000106A90EA8FFF78E
:103B8000DDFCDDE90F010E9A03910021009207F19F
:103B9000010A04914DE04FF000400097CDE901107B
:103BA00006A90EA8FFF7CAFCDDE90F0203920E9BDF
:103BB00011990022DDF80CA00093049211B9791C30
:103BC00000EB010AB7EB0A0004D4C0F1FF3007F1A3
:103BD000010A0490AAEB0700019044E0012F00DAEB
:103BE00001270021112F01DD112000E03846CDE929
:103BF000000106A90EA8FFF7A1FCDDE90F010E9A4E
:103C00000391002104910092BA4621070CD4039934
:103C1000514500DA8A46BAF1010F05DD009AAAF192
:103C20000101515C302908D0B84202DA10F1040FCA
:103C300006DA0121CDE9011015E0AAF10101E9E759
:103C4000002805DC049901440491AAEB000102E07C
:103C5000411C514500DD8A460499401A401C0190E0
:103C60004FF000400290200704D40198504501DB3A
:103C7000CDF8048000208DF84F0002980DF14F0719
:103C8000B0F1004F25D02B200E9002984FF0020883
:103C900000280CDA404202902D200E9007E00A2105
:103CA0000298FCF705FC3031029007F8011DB8F1CD
:103CB0000001A8F10108F2DC02980028EFD1791E7A
:103CC0000E980870307800F0200040F0450007F8AA
:103CD000020D12A8C01B00F107081498007800B16B
:103CE000012000EB0A01019801EBE07105984144C5
:103CF000401A401E0590E00306D45B462146179A01
:103D0000059800F05DF805441498007818B15A46FB
:103D1000179990476D1CE00324D55B462146179AFE
:103D2000059800F04DF805441CE00498002807DBD6
:103D3000DDE90301884203DD0098405C179901E04A
:103D4000179930205A469047049805F10105401C08
:103D500004900198401E019004D12E205A461799D4
:103D600090476D1CBAF10001AAF1010ADDDC05E003
:103D700017F8010B5A46179990476D1CB8F10001CE
:103D8000A8F10108F4DC5B462146179A0598ABE6DA
:103D90002D0000002B000000200000002DE9F04164
:103DA000044600251E461746880404D405E039461B
:103DB0002020B0476D1C641EF9D52846BDE8F0816F
:103DC0002DE9F041044600251E469046C80301D562
:103DD000302700E02027880404D505E04146384616
:103DE000B0476D1C641EF9D52846BDE8F08100007F
:103DF0002DE9F04188B0012700243A020325DFF8BD
:103E0000A8802A4E012829D0002824D1012110465B
:103E1000FEF704FA042000908DF804508DF8074056
:103E200069464046FDF7BEF902948DF80C408DF8C6
:103E30000D40049406948DF81C7002A93046FCF7DE
:103E4000E7FD0723012202213046FCF71BFE01217A
:103E50003046FCF7A6FD08B0BDE8F0810121104610
:103E6000FEF7DCF9802000908DF804508DF80740B3
:103E700069464046FDF796F902948DF80C408DF89E
:103E80000D40049406948DF81C7002A93046FCF78E
:103E9000BFFD0723012219463046FCF7F3FD01213F
:103EA0003046FCF77EFDD6E70000024000200140CE
:103EB0002DE9F0432DED028BADF5737D00269FEDCE
:103EC0005F8A4FF47A74A046042001F0BFF86510B1
:103ED000284600F009FC284600F006FC284600F0C1
:103EE00003FC002000214FF4F07903AF27F81010F5
:103EF000401C4845FADB52480278AAB101700025FF
:103F00002046FCF743FD44440A2000F0EDFBFDF79A
:103F1000E1F927F815006D1C4D45F1DB0DF5737DBA
:103F2000BDEC028BBDE8F08300252046FCF72EFD9A
:103F300044440A2000F0D8FBFDF7CCF927F815001F
:103F40006D1C4D45F1DBBDF80E10022037F8102036
:103F50008A4200D91146401C4845F7DB0846FCF769
:103F600022FA9FED381B53EC112BFCF73BF9FCF7C1
:103F700027FA85B20224601E37F81000A84212D337
:103F800037F81400A8420ED86000401E00EBD07035
:103F9000C0F34F06401000EE100AB8EEC08A31465A
:103FA0002AA0FFF769FA641C4C45E4DB01240A25CA
:103FB0004FF478494FF4E17837F814004A46B0FBE3
:103FC000F5F0C0F5967081B204F10F0080B2FDF7F4
:103FD00000FC641C4445EFDB1F2000904FF49173FC
:103FE00032466E213046FDF71FFB1BA01824CDE999
:103FF000004006F13C00054680B21E23C8229621EF
:10400000FEF738F8A8B20323324696210094FDF754
:10401000F3FF9FED140A64216C3628EE000A022398
:104020000094BCEEC00A10EE100AB0FBF1F201FBE6
:104030001202B0B29621FDF7DFFF6FE7000000002B
:104040000400002039B4C876BE9FE63F2564204BAB
:10405000487A0D0A000000002020202E2020204B4E
:10406000687A00000000C8422DE9F04F9BB08246FC
:1040700001214FF4E060FEF7D1F8724FDFF8C881FC
:10408000002401250326DFF8C4B14FF00409BAF17A
:10409000010F03D0BAF1000F6CD08CE001216C4805
:1040A000FEF792F802946B4803906B4804900594D5
:1040B000069507944FF480600890400009908000B6
:1040C0000A904FF4807ACDF82CA000010C900D944A
:1040D0000E950F94109402A96048FCF753FE01213D
:1040E0005E48FCF743FECDF800908DF804608DF833
:1040F000074069465846FDF755F807201190CDF85E
:1041000050A04FF440401390129411A8FCF756FCB5
:104110004FF0007015908DF858408DF85950179455
:1041200019948DF8685015A93846FCF771FC0023E6
:10413000012202213846FCF7A5FC15A94046FCF7F0
:1041400067FC0023012202214046FCF79BFC012171
:104150003846FCF747FC0120FCF780FC012138467B
:10416000FCF71FFC01214046FCF71BFC3846FCF71E
:10417000C3FC20E0CDF800908DF804608DF8074076
:1041800069465846FDF70EF815948DF858408DF89D
:104190005940179419948DF8685015A93846FCF7C2
:1041A00037FC0723012202213846FCF76BFC012172
:1041B0003846FCF7F6FB082000908DF804608DF877
:1041C000074069465846FCF7EDFF15948DF85840B6
:1041D0008DF85940179419948DF86850204F15A9FF
:1041E0003846FCF715FC0723012203213846FCF76B
:1041F00049FC01213846FCF7D4FB402000908DF8A3
:1042000004608DF8074069465846FCF7CBFF1594CB
:104210008DF858408DF85940179419948DF86850CE
:1042200015A94046FCF7F4FB07230122062140466E
:10423000FCF728FC01214046FCF7B3FB1BB0BDE8AE
:10424000F08F0000002001400021014000000240EA
:104250000100400008230140640000201064024077
:10426000002201401FB501210846FDF7ADFF1020D7
:10427000029003208DF80C0000248DF80F4002A955
:104280000A48FCF78FFF01214807FDF7B9FF0094AA
:10429000019402940220039069460020FCF752FD2D
:1042A00001210020FCF73EFD1FBD00000000024080
:1042B0001FB501210846FDF787FF2020029003204B
:1042C0008DF80C0000248DF80F4002A90A48FCF775
:1042D00069FF01214807FDF793FF009401940294C0
:1042E0000220039069461020FCF72CFD01211020CC
:1042F000FCF718FD1FBD00000000024010B5144976
:1043000008684FF6FF021040124A40F40070104354
:104310000860A82000F0D2F94FF4E13001F03AFA39
:1043200000F0BEFC00F098FB00F0CAFFFDF77CFA3D
:1043300009480068804700F0CDFBFFF793FFFFF7C7
:10434000B7FF0020FFF790FEBDE81040FCF7DFBA92
:104350000CED00E00000FA057400002010B54FF4E9
:10436000FA742046FCF712FB022000F06FFE204694
:1043700000F0BAF9FCF7DEFF094C2068FCF739F8C9
:1043800041EC100B07A053EC102BFFF775F8074911
:104390002068884201DB012010BD002010BD000014
:1043A000D40000202D3E2025660D0A009A99D93FA1
:1043B00010B50F48FCF7EAFA032000F047FE4FF46F
:1043C000FA7000F091F9FCF7B5FF0A4C2068FCF791
:1043D00010F841EC100B08A053EC102BFFF74CF831
:1043E00007492068884201DB012010BD002010BD74
:1043F000982E0200D40000202D3E2025660D0A00D4
:104400009A99993F2DE9FC5F4FF07809784D022089
:1044100028706E1C3070AF1C387076A0FFF72CF837
:104420004FF47A7A5046FCF7B1FA002000F00EFE05
:104430004FF4FA78404600F057F9FCF7F7FF71485F
:1044400004682046FBF7D5FF41EC100B6EA053EC3F
:10445000102BFFF711F820466D4900244FF0100B88
:10446000884220DA2C706BA0FFF706F8287810B18C
:1044700001280BD014E06BA0CDE900B010234FF45D
:10448000967296216E20FDF7F5FD09E067A0CDE953
:1044900000B010234FF4967296216E20FDF7EAFDCE
:1044A0000020BDE8FC9F287858B1012809D062A0FF
:1044B000CDE900B010234FF4967296216E20FDF7DF
:1044C000D9FD5046FCF762FA032000F0BFFD4046DC
:1044D00000F00AF9FCF72EFF4A480C3090ED000A74
:1044E0004348C01F80ED030A00F08AFADFED530A4B
:1044F000B4EEE00AF1EE10FA1ED210EE100AFBF74D
:1045000078FF41EC100B4EA053EC102BFEF7B4FFDC
:1045100049464EA0FEF7B0FF51A0FEF7ADFF347044
:1045200040A0CDE900B010234FF49672B4216E2064
:10453000FDF7A0FD0020B4E7317859B1012909D079
:104540003DA0CDE900B010234FF49672B4216E2047
:10455000FDF790FD4648FCF719FA042000F076FDBF
:10456000404600F0C1F80520FCF7A4FEFBF71BFF56
:104570009FED401B53EC112BFBF734FE9FED3F1BCF
:1045800053EC112BFBF7A0FEFBF776FF0546284600
:10459000FBF72FFF41EC100B3AA053EC102BFEF76A
:1045A0006BFFB5F17E5F0FDD3CA0FEF765FF3C7051
:1045B0001CA0CDE900B010234FF49672D2216E20DA
:1045C000FDF758FD00206CE7387858B1012809D074
:1045D00019A0CDE900B010234FF49672D2216E20BD
:1045E000FDF748FD31A0FEF747FF012059E7000025
:1045F0000B000020BDF8C8EBB5E7C8DDB2E2C1BFD3
:10460000210D0A00C800002025660D0A00000000E8
:10461000CDCCCC3D4331B5E7C8DDBFAAC2B7A3A11D
:104620000D0A00004F70656E0000000053686F7245
:1046300074637574000000004F4B00000000F042EE
:104640006761696E203D2025660D0A007265665F10
:104650006761696E31203D2025640D0A000000006D
:104660004332B5E7C8DDBFAAC2B7A3A10D0A000057
:1046700090D003006666666666660A400000000029
:1046800000FEAF406F75747075745F766F6C746107
:104690006765203D3D25660D0A0000004333B5E700
:1046A000C8DDBFAAC2B7A3A10D0A0000D1E9D6A4F4
:1046B000CDEAB3C9A3A10D0A0000000070B50546FC
:1046C000084C65706FF00400FDF7CAFEE808207022
:1046D00000EB4001C1EBC0104FF6FF7101EAC000D2
:1046E000608070BDAA00002070B54FF40775B0FB64
:1046F000F5F1CCB2B0FBF5F105FB110604E028465C
:1047000000F026F8641EE4B2002CF8D1002E04D08C
:104710003046BDE8704000F01BB870BD0B49097809
:1047200048434FF0E021486100238B61086940F065
:10473000010008610869C20701D0C003FAD5086901
:1047400020F0010008618B6170470000AA00002082
:104750000B49498848434FF0E021486100238B61B1
:10476000086940F0010008610869C20701D0C00370
:10477000FAD5086920F0010008618B6170470000DC
:10478000AA0000207CB52B4940F2CF100880C21D42
:104790005A2300210A20FCF7A3FF182426A0CDE904
:1047A00000402346F02200211E20FDF763FC27A0D5
:1047B000CDE900401E211823F0220846FDF75AFCDF
:1047C00027A0CDE900401823C8223C211E20FDF778
:1047D00051FC00244FF491750F222B466E21104698
:1047E0000094FCF721FF2B464FF4E67229460F2078
:1047F0000094FCF719FF10241EA0CDE900404FF4EF
:1048000096752346642229461420FDF733FC1BA02D
:10481000CDE90040102364222946DE20FDF72AFC62
:1048200018A0CDE900406422102329469000FDF72E
:1048300021FC7CBD140000205269203D2030303026
:1048400030302E30303030204F686D00526F203DB8
:104850002030303030302E30303030204F686D0016
:104860004156203D203030302E3030303020562F11
:104870005600000031204B487A00000032343020CE
:104880004B487A00343530204B487A001CB518214B
:1048900025A0CDE900100B464FF496720021782038
:1048A000FDF7E8FB102425A0CDE900402346C822EF
:1048B0001E211420FDF7DEFB25A0CDE900401023CA
:1048C000C8223C211420FDF7D5FB26A0CDE90040ED
:1048D0001023C8225A211420FDF7CCFB26A0CDE9D5
:1048E00000401023C82278211420FDF7C3FB27A025
:1048F000CDE900401023C82296211420FDF7BAFB11
:1049000027A0CDE900401023C822B4211420FDF7D0
:10491000B1FB28A0CDE900401023C822D2211420E9
:10492000FDF7A8FB1CBD00004D6561737572652025
:104930005465737420526573756C74005231205342
:1049400074617475733A202020202020000000003C
:104950005232205374617475733A20202020202035
:10496000000000005233205374617475733A2020A4
:104970002020202000000000523420537461747500
:10498000733A2020202020200000000043312053D3
:1049900074617475733A20202020202000000000EC
:1049A0004332205374617475733A202020202020F4
:1049B000000000004333205374617475733A202063
:1049C000202020200000000003490A885206FCD560
:1049D000C2B28A80704700000010014010B5FBF79A
:1049E000E2FC9FED051B53EC112BFBF7FBFBBDE835
:1049F0001040FBF7E5BC000028D53E1D8F7925400F
:104A000010B52DED028B0F48C068FBF7F2FC9FED4F
:104A10000E1B53EC112BFBF757FCFBF72DFD08EE9B
:104A2000100A18EE100AFBF7E4FC41EC110B08A089
:104A300053EC112BFEF720FDB0EE480ABDEC028BC3
:104A400010BD0000040000207B14AE47E17A943FC3
:104A500025660D0A000000002DE9FC41012104201B
:104A6000FDF7B2FB4FF47C57009701248DF804400A
:104A700000268DF8066003258DF805508DF8074057
:104A8000DFF8488069464046FCF78CFB0022394637
:104A90004046FCF7D9FB01211020FDF795FB3F2094
:104AA00000908DF804408DF806608DF805508DF863
:104AB0000740074C69462046FCF774FB00223F2163
:104AC0002046FCF7C1FBBDE8FC8100000008024065
:104AD000001002407CB501211220FDF775FB042077
:104AE000009003268DF8056000248DF8044002250F
:104AF0008DF8075069460848FCF754FB40200090A9
:104B00008DF805608DF804408DF80750694603481C
:104B1000FCF748FB7CBD000000040240001002408E
:104B200070B52DED048B4FF47A70FBF72FFF00204A
:104B300000F08CFA4FF4FA752846FFF7D5FDFCF724
:104B400075FC264C94ED008A9FED259ADFED250A31
:104B500088EE090AC0EE208A18EE900AFBF749FC9D
:104B600041EC100B20A053EC102BFEF785FC01202C
:104B700000F06CFA2846FFF7B7FDFCF757FCD4EDC0
:104B8000000AB3EE0E1A80EE810AC8EE090A30EE72
:104B9000609A19EE100AFBF72CFC41EC100B17A0E1
:104BA00053EC102BFEF768FC89EE288A18EE100AE9
:104BB000FBF71FFC41EC100B16A053EC102BFEF77B
:104BC0005BFCB5EEC08AF1EE10FA01D2B1EE488A74
:104BD000B0EE480ABDEC048B70BD0000C800002098
:104BE0000000C84200401C46B2EEB7D6D2C7B7C5D7
:104BF000B5E7C1F7A3BA25660D0A0000B5A5B6CB87
:104C0000D2C7B7C5CAE4C8EBB5E7D1B9A3BA256620
:104C10000D0A0000CAE4C8EBB5E7D7E8A3BA30250F
:104C2000660D0A002DE9F0410126194D002800D03B
:104C30002E702878174FDFF86080184CF8B1D8F83C
:104C4000080210B9D4F81802C8B10A20FFF74CFDC9
:104C50002878D8B1D8F8080210B9D4F81802A8B149
:104C600000202870D8F8080218B102203870BDE87A
:104C7000F081D4F8180248B13E700120F7E7D8F867
:104C8000080218B9D4F8180200B92E703878EEE787
:104C9000200000200000002000804042000042422E
:104CA0007CB501210820FDF78FFA4FF440540094A1
:104CB00001208DF8040000228DF8062003228DF8D3
:104CC00005208DF80700054D69462846FCF76AFA6D
:104CD00021462846FCF7B4FA7CBD0000000C0240D7
:104CE0001CB5FFF70BFB252000F0A8FA4FF47A70F3
:104CF000FBF74CFE4FF6FF773846FCF715FC1826FD
:104D00009FA1CDE90061C822334696211046FDF7E8
:104D1000B1F9FFF7CDF83846FCF706FC9BA0CDE9CA
:104D200000604FF4967918234A4696211420FDF727
:104D3000A1F99FA0CDE9006018234A46B4211420B0
:104D4000FDF798F9DFF878A2DFF878B2DFF878821B
:104D50001024DAF8B00248B10020CAF8B0020020EE
:104D6000FFF760FF0546012D02D0E8E00120F4E7DF
:104D7000012088F800003846FCF7D6FB93A0CDE967
:104D8000006018234A4696211420FDF773F900F0BD
:104D9000CDFAC0B200287DD03846FCF7C5FBFFF73E
:104DA00075FD9BF8000058B1012809D08BA0CDE912
:104DB0000040102378221E216E20FDF75BF916E0DB
:104DC00010B101280AD012E085A0CDE900401023DF
:104DD00078221E216E20FDF74DF908E082A0CDE972
:104DE0000040102378221E216E20FDF743F98148F0
:104DF000007858B1012809D078A0CDE900401023EF
:104E000078223C216E20FDF735F916E010B101281B
:104E10000AD012E072A0CDE90040102378223C2194
:104E20006E20FDF727F908E06FA0CDE900401023C0
:104E300078223C216E20FDF71DF96F48007858B1AB
:104E4000012809D065A0CDE90040102378225A211D
:104E50006E20FDF70FF916E010B101280AD012E01C
:104E60005FA0CDE90040102378225A216E20FDF783
:104E700001F908E05CA0CDE90040102378225A2116
:104E80006E20FDF7F7F85D48007868B101280BD077
:104E900052A000E046E0CDE9004078221023114600
:104EA0006E20FDF7E7F816E010B101280AD012E0F5
:104EB0004BA0CDE900407822102311466E20FDF76B
:104EC000D9F808E048A0CDE9004078221023114627
:104ED0006E20FDF7CFF8FFF795FAF0B1FFF768FA0B
:104EE00060B147A0FEF7C8FA48A0CDE90040102302
:104EF0004A46F0215A20FDF7BDF80EE0FFF72EFAE2
:104F000058B144A0FEF7B8FA45A0CDE900401023FF
:104F10004A46F0215A20FDF7ADF84FF47A70FFF7BA
:104F2000E3FB08E040A0CDE90060002118234A46D9
:104F30000846FDF79FF84FF4FA70FFF7D5FB022DF6
:104F40007FF407AF3846FCF7EFFA3DA0CDE90060EB
:104F500018234A4696211420FDF78CF8FA20FFF713
:104F6000C3FB022088F800003846FCF7DDFAFFF7A3
:104F700009FC00F065FC40F6C410FFF7B5FBE8E65D
:104F800057616974696E672E2E2E000053323A42C3
:104F9000696173204D6F6465202053333A41647614
:104FA000616E74616E6365204D6F64650000000082
:104FB000506C656173652053656C65637400000017
:104FC000008041420700002000000020416476611B
:104FD0006E74616E6365204D6F6465004F4B000019
:104FE0004F70656E0000000053686F7274637574D3
:104FF0000000000008000020090000200A00002036
:10500000B2A2C8EB43330D0A0000000043332078FE
:1050100032000000B2A2C8EB43320D0A00000000CB
:10502000433220783200000052657369746F722039
:105030004D656173757265204572726F7221000053
:105040004E6F726D616C204D6F64650030B500214C
:105050000124364A364B072812D2DFE800F004124A
:10506000202E3C4A580002F5287211605160916070
:10507000D1601161516103F5207319605960996025
:1050800030BD02F52872146051609160D1601161E9
:10509000516103F5207319605960996030BD02F5C4
:1050A0002872116054609460D4601161516103F5FD
:1050B000207319605960996030BD02F52872116043
:1050C00054609460D1601461516103F520731960DC
:1050D0005960996030BD02F5287211605460946087
:1050E000D1601161546103F52073196059609960B2
:1050F00030BD02F52872116051609160D16011617C
:10510000516103F520731C6059609C6030BD02F54D
:105110002872116051609160D1601161516103F595
:1051200020731C605C609C6030BD00000000414248
:105130000000424270B52DED028B82B04FF47A70C0
:10514000FBF724FC0220FFF781FF4FF4FA7420469E
:10515000FFF7CAFAFCF7EEF8244E96ED008A9FEDB1
:10516000240AC8EE008A0320FFF770FF2046FFF7ED
:10517000BBFAFCF7DFF8002456F82400FBF739F9F6
:1051800041EC100B1BA053EC102BFEF775F9641CBF
:10519000012CF1DB1C493068C860FBF72AF9044692
:1051A0000D4618EE100AFBF724F941EC100B17A07E
:1051B00053EC102BCDE90045FEF75EF996ED000AA1
:1051C00030EE480A80EE288A18EE100AFBF711F933
:1051D00041EC110B17A053EC112BFEF74DF902B067
:1051E000B0EE480ABDEC028B70BD0000D400002078
:1051F00000803B452D2D2D2D2D2D2D2D2D2D2D2D93
:105200002D25660D0A00000004000020B4F8B8BA8D
:10521000D4D8B5E7D1B9D6B5203D2025662C2020BD
:1052200020BFD5D4D8B5E7D1B9D6B5203D20256665
:105230000D0A000025660D0A000000002DE9F04768
:1052400000F03F051D4E0027C6F88C724FF4FA7926
:105250004846FFF763FAC6F880724846FFF75EFAE1
:105260004FF00108C6F88C824846FFF757FA002431
:105270004FF03F0A690901291DD0C6F884724846DB
:10528000FFF74CFAC6F880824846FFF747FA0AEA69
:105290004505C6F880724846FFF740FA641CE4B240
:1052A000062CE7D3C6F88C724846FFF737FAC6F8E3
:1052B0008472BDE8F087C6F88482E0E7008040424F
:1052C0002DE9FC4101210320FCF77EFF1B2000900B
:1052D00000278DF8067001248DF807408DF80440F2
:1052E00003268DF80560DFF83C8069464046FBF7F1
:1052F00059FF1B214046FBF7A5FFF50200958DF8ED
:1053000006708DF807408DF804408DF805606946F9
:105310004046FBF747FF29460348FBF793FFBDE8EC
:10532000FC81000000040240000002402DE9F04F23
:105330002DED068B83B0B6A0FEF79EF80120FEF798
:1053400057FDC820FFF7D0F90520FFF77FFE4FF487
:10535000FA70FFF7C9F9FBF77DFFFBF724F89FED23
:10536000B0AB53EC1A2BFAF73DFF9FEDAF9B53EC1C
:10537000192BFAF7A9FFFBF77FF800EE100ADFED13
:10538000AC8A20EE280ABCEEC00A10EE100A1FFA02
:1053900080FB5946A7A0FEF76FF8DFF8A88202202D
:1053A00088F80000A8F1020989F80000A8F1010AB4
:1053B0008AF8000008F101010870ABF23B71012688
:1053C0001824A8F10505632916D20520A8709EA00F
:1053D000FEF752F8A0A0CDE9004018234FF49672D2
:1053E00032210020FCF746FE88F80060002003B060
:1053F000BDEC068BBDE8F08FABF2A561952911D20B
:10540000AE7099A0FEF738F89BA0CDE900401823B4
:105410004FF4967232210020FCF72CFE89F80060D0
:105420000020E4E7ABF2592100274F2911D2A870E0
:1054300095A0FEF721F898A0CDE9004018234FF47D
:10544000967232210020FCF715FE8AF800700020C9
:10545000CDE7BBF1280F4FD20620FFF7F7FD4FF441
:10546000FA7B5846FFF740F9FBF7F4FEFAF79BFF8B
:1054700053EC1A2BFAF7B6FE53EC192BFAF724FF6C
:10548000FAF7FAFF00EE100A20EE280ABCEEC00A76
:1054900010EE100A80B2A0F20971C72910D281A0C3
:1054A000FDF7EAFF83A0CDE9004018234FF4967280
:1054B00032210020FCF7DEFD88F80070002096E71E
:1054C000B0F5F07F11D25F48401C06707CA0FDF75C
:1054D000D3FF7FA0CDE9004018234FF4967232210C
:1054E0000020FCF7C7FD002081E70520FFF7AEFD97
:1054F0005846FFF7F9F804E00820A87078A0FDF7F7
:10550000BBFFA87808287AD1FFF70AFBB0EE408AE3
:1055100018EE100AFAF76DFF41EC100B75A053EC72
:10552000102BFDF7A9FF18EE100A744908447449BE
:10553000884210D289F8007072A0FDF79DFF75A017
:10554000CDE9004018234FF4967232210020FCF779
:1055500091FD00204BE718EE100A7149084471498B
:10556000884233D20520FFF771FD4FF4FA70FFF740
:10557000BBF8FBF76FFEFAF716FF53EC1A2BFAF79E
:1055800031FE53EC192BFAF79FFEFAF775FF00EE88
:10559000100A20EE280ABCEEC00A10EE100A80B2F3
:1055A000A0F2416063280FD22648401C07705EA01D
:1055B000FDF762FF60A0CDE9004018234FF496721A
:1055C00032210020FCF756FD002010E718EE100AEB
:1055D0005C4908445C49884211D28AF800605BA0AB
:1055E000FDF74AFF5DA0CDE9004018234FF4967205
:1055F00032210020FCF73EFD0020F8E6FFE7002006
:10560000FEF7F6FBC820FFF76FF80120EFE6000079
:10561000BDF8C8EBB5E7D7E8B2E2C1BF210D0A007B
:105620007F6ABC74931809400000000000FEAF4080
:1056300000007A44696E74766F6C203D2025640DFD
:105640000A00000009000020B9CAD5CFA3BA52331E
:10565000B6CCC2B70D0A000052332053686F727483
:105660006375742100000000B9CAD5CFA3BA5231C6
:10567000B6CCC2B70D0A000052312053686F727465
:105680006375742100000000B9CAD5CFA3BA5232A5
:10569000BFAAC2B70D0A00005232204F70656E21BA
:1056A00000000000B9CAD5CFA3BA5233BFAAC2B70F
:1056B0000D0A00005233204F70656E21000000007B
:1056C000B9CAD5CFA3BA5234B6CCC2B70D0A0000BE
:1056D00052342053686F72746375742100000000A7
:1056E000BEB2CCACB2E2CAD4CDEAB3C9A3A10D0A12
:1056F0000000000025660D0A00000000FFAF3CB965
:10570000FF614600B9CAD5CFA3BA5231BFAAC2B70A
:105710000D0A00005231204F70656E21000000001C
:10572000FFBF63B9FF0F2700B9CAD5CFA3BA523460
:10573000BFAAC2B70D0A00005234204F70656E2117
:1057400000000000FF9F15BAFF3F2200B9CAD5CF65
:10575000A3BA5232B6CCC2B70D0A0000523220535F
:10576000686F7274637574210000000070B5074D96
:10577000074C01212846FCF7DDFDD4F8A41288422D
:10578000F7D02846FCF7DDFDC0B270BD0038004000
:1057900000004342F0B587B0054601210846FCF7FA
:1057A00013FD01211020FCF739FD234F07220921A9
:1057B0003846FBF735FD07220A213846FBF730FD56
:1057C0004FF4C060059002208DF818008DF8190084
:1057D00000248DF81A4001268DF81B6005A9384673
:1057E000FBF7E0FC0195ADF80840ADF80A40ADF8D4
:1057F0000C40ADF810400C20ADF80E000F4C01A984
:105800002046FDF7D1FD01212046FDF785FD01224F
:1058100040F225512046FDF7ABFD25208DF8000014
:1058200003208DF801008DF802008DF803606846B2
:10583000FCF794FC07B0F0BD0000024000100140EE
:1058400070B52DED048B82B0FFF76AF9B0EE408A97
:10585000FFF770FCF0EE408AFFF7D2F8B0EE409A06
:105860000420FFF7F3FB33494FF478400880BCEE87
:10587000C80A10EE102ADFED309A42F2107528EEB9
:10588000290ABCEEC00A10EE100AB0FBF5F105FBC8
:1058900011061824052300215A200094FCF7ACFBC4
:1058A000042332460021A2200094FCF7A5FBBCEEA5
:1058B000E80A10EE102A28EEA90ABCEEC00A10EE83
:1058C000100AB0FBF5F105FB110605231E215A2035
:1058D0000094FCF791FB042332461E21A220009481
:1058E000FCF78AFBBCEEC90A10EE100A82B229EE60
:1058F000290ABCEEC00A10EE100AB0FBF5F105FB58
:10590000110503233C215A200094FCF775FB042366
:105910002A463C218A200094FCF76EFBFEF7C8FA69
:1059200002B04FF4FA70BDEC048BBDE87040FEF796
:10593000DBBE00001400002000401C4600000000F8
:105940000000000000000000000000003F400000D8
:105950000000000000003000400030004000000067
:1059600009000BC03D000BC03D00090018C02440D9
:105970007FE0224031800000180024C01B000D8011
:105980003240018003801C4027401C8007400040BB
:105990001000600000000000000000000000000097
:1059A00000001F80204040200000402020401F8039
:1059B00000000000090006001F800600090000002A
:1059C000040004003F800400040000000010006098
:1059D00000000000000000000400040004000400B7
:1059E0000400000000000040000000000000000073
:1059F000002001C006003800400000001F80204049
:105A0000204020401F800000000010403FC00040A8
:105A10000000000018C0214022402440184000002F
:105A200010802040244024401B80000002000D0014
:105A300011003FC0014000003C802440244024402D
:105A4000238000001F802440244034400380000055
:105A50003000200027C03800200000001B802440B8
:105A6000244024401B8000001C0022C02240224011
:105A70001F8000000000000008400000000000003F
:105A800000000000046000000000000000000400AE
:105A90000A001100208040400900090009000900A7
:105AA0000900000000004040208011000A000400AE
:105AB0001800200023402400180000001F80204010
:105AC000274029401F400000004007C039000F0058
:105AD00001C0004020403FC0244024401B80000003
